{
  "contractName": "NFTMarketplace",
  "abi": [
    {
      "inputs": [
        {
          "internalType": "string",
          "name": "name",
          "type": "string"
        },
        {
          "internalType": "string",
          "name": "symbol",
          "type": "string"
        },
        {
          "internalType": "address",
          "name": "initialOwner",
          "type": "address"
        }
      ],
      "stateMutability": "nonpayable",
      "type": "constructor"
    },
    {
      "inputs": [
        {
          "internalType": "address",
          "name": "sender",
          "type": "address"
        },
        {
          "internalType": "uint256",
          "name": "tokenId",
          "type": "uint256"
        },
        {
          "internalType": "address",
          "name": "owner",
          "type": "address"
        }
      ],
      "name": "ERC721IncorrectOwner",
      "type": "error"
    },
    {
      "inputs": [
        {
          "internalType": "address",
          "name": "operator",
          "type": "address"
        },
        {
          "internalType": "uint256",
          "name": "tokenId",
          "type": "uint256"
        }
      ],
      "name": "ERC721InsufficientApproval",
      "type": "error"
    },
    {
      "inputs": [
        {
          "internalType": "address",
          "name": "approver",
          "type": "address"
        }
      ],
      "name": "ERC721InvalidApprover",
      "type": "error"
    },
    {
      "inputs": [
        {
          "internalType": "address",
          "name": "operator",
          "type": "address"
        }
      ],
      "name": "ERC721InvalidOperator",
      "type": "error"
    },
    {
      "inputs": [
        {
          "internalType": "address",
          "name": "owner",
          "type": "address"
        }
      ],
      "name": "ERC721InvalidOwner",
      "type": "error"
    },
    {
      "inputs": [
        {
          "internalType": "address",
          "name": "receiver",
          "type": "address"
        }
      ],
      "name": "ERC721InvalidReceiver",
      "type": "error"
    },
    {
      "inputs": [
        {
          "internalType": "address",
          "name": "sender",
          "type": "address"
        }
      ],
      "name": "ERC721InvalidSender",
      "type": "error"
    },
    {
      "inputs": [
        {
          "internalType": "uint256",
          "name": "tokenId",
          "type": "uint256"
        }
      ],
      "name": "ERC721NonexistentToken",
      "type": "error"
    },
    {
      "inputs": [
        {
          "internalType": "address",
          "name": "owner",
          "type": "address"
        }
      ],
      "name": "OwnableInvalidOwner",
      "type": "error"
    },
    {
      "inputs": [
        {
          "internalType": "address",
          "name": "account",
          "type": "address"
        }
      ],
      "name": "OwnableUnauthorizedAccount",
      "type": "error"
    },
    {
      "anonymous": false,
      "inputs": [
        {
          "indexed": true,
          "internalType": "address",
          "name": "owner",
          "type": "address"
        },
        {
          "indexed": true,
          "internalType": "address",
          "name": "approved",
          "type": "address"
        },
        {
          "indexed": true,
          "internalType": "uint256",
          "name": "tokenId",
          "type": "uint256"
        }
      ],
      "name": "Approval",
      "type": "event"
    },
    {
      "anonymous": false,
      "inputs": [
        {
          "indexed": true,
          "internalType": "address",
          "name": "owner",
          "type": "address"
        },
        {
          "indexed": true,
          "internalType": "address",
          "name": "operator",
          "type": "address"
        },
        {
          "indexed": false,
          "internalType": "bool",
          "name": "approved",
          "type": "bool"
        }
      ],
      "name": "ApprovalForAll",
      "type": "event"
    },
    {
      "anonymous": false,
      "inputs": [
        {
          "indexed": true,
          "internalType": "address",
          "name": "previousOwner",
          "type": "address"
        },
        {
          "indexed": true,
          "internalType": "address",
          "name": "newOwner",
          "type": "address"
        }
      ],
      "name": "OwnershipTransferred",
      "type": "event"
    },
    {
      "anonymous": false,
      "inputs": [
        {
          "indexed": true,
          "internalType": "address",
          "name": "from",
          "type": "address"
        },
        {
          "indexed": true,
          "internalType": "address",
          "name": "to",
          "type": "address"
        },
        {
          "indexed": true,
          "internalType": "uint256",
          "name": "tokenId",
          "type": "uint256"
        }
      ],
      "name": "Transfer",
      "type": "event"
    },
    {
      "inputs": [
        {
          "internalType": "address",
          "name": "to",
          "type": "address"
        },
        {
          "internalType": "uint256",
          "name": "tokenId",
          "type": "uint256"
        }
      ],
      "name": "approve",
      "outputs": [],
      "stateMutability": "nonpayable",
      "type": "function"
    },
    {
      "inputs": [
        {
          "internalType": "address",
          "name": "owner",
          "type": "address"
        }
      ],
      "name": "balanceOf",
      "outputs": [
        {
          "internalType": "uint256",
          "name": "",
          "type": "uint256"
        }
      ],
      "stateMutability": "view",
      "type": "function"
    },
    {
      "inputs": [
        {
          "internalType": "uint256",
          "name": "tokenId",
          "type": "uint256"
        }
      ],
      "name": "getApproved",
      "outputs": [
        {
          "internalType": "address",
          "name": "",
          "type": "address"
        }
      ],
      "stateMutability": "view",
      "type": "function"
    },
    {
      "inputs": [
        {
          "internalType": "address",
          "name": "owner",
          "type": "address"
        },
        {
          "internalType": "address",
          "name": "operator",
          "type": "address"
        }
      ],
      "name": "isApprovedForAll",
      "outputs": [
        {
          "internalType": "bool",
          "name": "",
          "type": "bool"
        }
      ],
      "stateMutability": "view",
      "type": "function"
    },
    {
      "inputs": [],
      "name": "name",
      "outputs": [
        {
          "internalType": "string",
          "name": "",
          "type": "string"
        }
      ],
      "stateMutability": "view",
      "type": "function"
    },
    {
      "inputs": [
        {
          "internalType": "uint256",
          "name": "",
          "type": "uint256"
        }
      ],
      "name": "nfts",
      "outputs": [
        {
          "internalType": "string",
          "name": "name",
          "type": "string"
        },
        {
          "internalType": "string",
          "name": "description",
          "type": "string"
        },
        {
          "internalType": "address",
          "name": "owner",
          "type": "address"
        },
        {
          "internalType": "uint256",
          "name": "price",
          "type": "uint256"
        },
        {
          "internalType": "bool",
          "name": "forSale",
          "type": "bool"
        }
      ],
      "stateMutability": "view",
      "type": "function"
    },
    {
      "inputs": [],
      "name": "owner",
      "outputs": [
        {
          "internalType": "address",
          "name": "",
          "type": "address"
        }
      ],
      "stateMutability": "view",
      "type": "function"
    },
    {
      "inputs": [
        {
          "internalType": "uint256",
          "name": "tokenId",
          "type": "uint256"
        }
      ],
      "name": "ownerOf",
      "outputs": [
        {
          "internalType": "address",
          "name": "",
          "type": "address"
        }
      ],
      "stateMutability": "view",
      "type": "function"
    },
    {
      "inputs": [],
      "name": "renounceOwnership",
      "outputs": [],
      "stateMutability": "nonpayable",
      "type": "function"
    },
    {
      "inputs": [
        {
          "internalType": "address",
          "name": "from",
          "type": "address"
        },
        {
          "internalType": "address",
          "name": "to",
          "type": "address"
        },
        {
          "internalType": "uint256",
          "name": "tokenId",
          "type": "uint256"
        }
      ],
      "name": "safeTransferFrom",
      "outputs": [],
      "stateMutability": "nonpayable",
      "type": "function"
    },
    {
      "inputs": [
        {
          "internalType": "address",
          "name": "from",
          "type": "address"
        },
        {
          "internalType": "address",
          "name": "to",
          "type": "address"
        },
        {
          "internalType": "uint256",
          "name": "tokenId",
          "type": "uint256"
        },
        {
          "internalType": "bytes",
          "name": "data",
          "type": "bytes"
        }
      ],
      "name": "safeTransferFrom",
      "outputs": [],
      "stateMutability": "nonpayable",
      "type": "function"
    },
    {
      "inputs": [
        {
          "internalType": "address",
          "name": "operator",
          "type": "address"
        },
        {
          "internalType": "bool",
          "name": "approved",
          "type": "bool"
        }
      ],
      "name": "setApprovalForAll",
      "outputs": [],
      "stateMutability": "nonpayable",
      "type": "function"
    },
    {
      "inputs": [
        {
          "internalType": "bytes4",
          "name": "interfaceId",
          "type": "bytes4"
        }
      ],
      "name": "supportsInterface",
      "outputs": [
        {
          "internalType": "bool",
          "name": "",
          "type": "bool"
        }
      ],
      "stateMutability": "view",
      "type": "function"
    },
    {
      "inputs": [],
      "name": "symbol",
      "outputs": [
        {
          "internalType": "string",
          "name": "",
          "type": "string"
        }
      ],
      "stateMutability": "view",
      "type": "function"
    },
    {
      "inputs": [],
      "name": "tokenCounter",
      "outputs": [
        {
          "internalType": "uint256",
          "name": "",
          "type": "uint256"
        }
      ],
      "stateMutability": "view",
      "type": "function"
    },
    {
      "inputs": [
        {
          "internalType": "uint256",
          "name": "tokenId",
          "type": "uint256"
        }
      ],
      "name": "tokenURI",
      "outputs": [
        {
          "internalType": "string",
          "name": "",
          "type": "string"
        }
      ],
      "stateMutability": "view",
      "type": "function"
    },
    {
      "inputs": [
        {
          "internalType": "address",
          "name": "from",
          "type": "address"
        },
        {
          "internalType": "address",
          "name": "to",
          "type": "address"
        },
        {
          "internalType": "uint256",
          "name": "tokenId",
          "type": "uint256"
        }
      ],
      "name": "transferFrom",
      "outputs": [],
      "stateMutability": "nonpayable",
      "type": "function"
    },
    {
      "inputs": [
        {
          "internalType": "address",
          "name": "newOwner",
          "type": "address"
        }
      ],
      "name": "transferOwnership",
      "outputs": [],
      "stateMutability": "nonpayable",
      "type": "function"
    },
    {
      "inputs": [
        {
          "internalType": "string",
          "name": "_name",
          "type": "string"
        },
        {
          "internalType": "string",
          "name": "_description",
          "type": "string"
        },
        {
          "internalType": "uint256",
          "name": "_price",
          "type": "uint256"
        }
      ],
      "name": "createNFT",
      "outputs": [
        {
          "internalType": "uint256",
          "name": "",
          "type": "uint256"
        }
      ],
      "stateMutability": "nonpayable",
      "type": "function"
    },
    {
      "inputs": [
        {
          "internalType": "uint256",
          "name": "_tokenId",
          "type": "uint256"
        },
        {
          "internalType": "uint256",
          "name": "_price",
          "type": "uint256"
        }
      ],
      "name": "listNFTForSale",
      "outputs": [],
      "stateMutability": "nonpayable",
      "type": "function"
    },
    {
      "inputs": [
        {
          "internalType": "uint256",
          "name": "_tokenId",
          "type": "uint256"
        }
      ],
      "name": "buyNFT",
      "outputs": [],
      "stateMutability": "payable",
      "type": "function"
    },
    {
      "inputs": [],
      "name": "withdraw",
      "outputs": [],
      "stateMutability": "nonpayable",
      "type": "function"
    }
  ],
  "bytecode": "0x608060405234801562000010575f80fd5b50604051620035413803806200354183398181016040528101906200003691906200039c565b808383815f90816200004991906200066a565b5080600190816200005b91906200066a565b5050505f73ffffffffffffffffffffffffffffffffffffffff168173ffffffffffffffffffffffffffffffffffffffff1603620000d1575f6040517f1e4fbdf7000000000000000000000000000000000000000000000000000000008152600401620000c891906200075f565b60405180910390fd5b620000e281620000f360201b60201c565b505f6008819055505050506200077a565b5f60065f9054906101000a900473ffffffffffffffffffffffffffffffffffffffff1690508160065f6101000a81548173ffffffffffffffffffffffffffffffffffffffff021916908373ffffffffffffffffffffffffffffffffffffffff1602179055508173ffffffffffffffffffffffffffffffffffffffff168173ffffffffffffffffffffffffffffffffffffffff167f8be0079c531659141344cd1fd0a4f28419497f9722a3daafe3b4186f6b6457e060405160405180910390a35050565b5f604051905090565b5f80fd5b5f80fd5b5f80fd5b5f80fd5b5f601f19601f8301169050919050565b7f4e487b71000000000000000000000000000000000000000000000000000000005f52604160045260245ffd5b6200021782620001cf565b810181811067ffffffffffffffff82111715620002395762000238620001df565b5b80604052505050565b5f6200024d620001b6565b90506200025b82826200020c565b919050565b5f67ffffffffffffffff8211156200027d576200027c620001df565b5b6200028882620001cf565b9050602081019050919050565b5f5b83811015620002b457808201518184015260208101905062000297565b5f8484015250505050565b5f620002d5620002cf8462000260565b62000242565b905082815260208101848484011115620002f457620002f3620001cb565b5b6200030184828562000295565b509392505050565b5f82601f83011262000320576200031f620001c7565b5b815162000332848260208601620002bf565b91505092915050565b5f73ffffffffffffffffffffffffffffffffffffffff82169050919050565b5f62000366826200033b565b9050919050565b62000378816200035a565b811462000383575f80fd5b50565b5f8151905062000396816200036d565b92915050565b5f805f60608486031215620003b657620003b5620001bf565b5b5f84015167ffffffffffffffff811115620003d657620003d5620001c3565b5b620003e48682870162000309565b935050602084015167ffffffffffffffff811115620004085762000407620001c3565b5b620004168682870162000309565b9250506040620004298682870162000386565b9150509250925092565b5f81519050919050565b7f4e487b71000000000000000000000000000000000000000000000000000000005f52602260045260245ffd5b5f60028204905060018216806200048257607f821691505b6020821081036200049857620004976200043d565b5b50919050565b5f819050815f5260205f209050919050565b5f6020601f8301049050919050565b5f82821b905092915050565b5f60088302620004fc7fffffffffffffffffffffffffffffffffffffffffffffffffffffffffffffffff82620004bf565b620005088683620004bf565b95508019841693508086168417925050509392505050565b5f819050919050565b5f819050919050565b5f620005526200054c620005468462000520565b62000529565b62000520565b9050919050565b5f819050919050565b6200056d8362000532565b620005856200057c8262000559565b848454620004cb565b825550505050565b5f90565b6200059b6200058d565b620005a881848462000562565b505050565b5b81811015620005cf57620005c35f8262000591565b600181019050620005ae565b5050565b601f8211156200061e57620005e8816200049e565b620005f384620004b0565b8101602085101562000603578190505b6200061b6200061285620004b0565b830182620005ad565b50505b505050565b5f82821c905092915050565b5f620006405f198460080262000623565b1980831691505092915050565b5f6200065a83836200062f565b9150826002028217905092915050565b620006758262000433565b67ffffffffffffffff811115620006915762000690620001df565b5b6200069d82546200046a565b620006aa828285620005d3565b5f60209050601f831160018114620006e0575f8415620006cb578287015190505b620006d785826200064d565b86555062000746565b601f198416620006f0866200049e565b5f5b828110156200071957848901518255600182019150602085019450602081019050620006f2565b8683101562000739578489015162000735601f8916826200062f565b8355505b6001600288020188555050505b505050505050565b62000759816200035a565b82525050565b5f602082019050620007745f8301846200074e565b92915050565b612db980620007885f395ff3fe608060405260043610610134575f3560e01c806370a08231116100aa578063b2733b391161006e578063b2733b391461040a578063b88d4fde14610432578063c87b56dd1461045a578063d082e38114610496578063e985e9c5146104c0578063f2fde38b146104fc57610134565b806370a082311461033c578063715018a6146103785780638da5cb5b1461038e57806395d89b41146103b8578063a22cb465146103e257610134565b8063265aa621116100fc578063265aa6211461022a5780633241d34a1461026a5780633ccfd60b146102a657806342842e0e146102bc57806351ed8288146102e45780636352211e1461030057610134565b806301ffc9a71461013857806306fdde0314610174578063081812fc1461019e578063095ea7b3146101da57806323b872dd14610202575b5f80fd5b348015610143575f80fd5b5061015e6004803603810190610159919061206f565b610524565b60405161016b91906120b4565b60405180910390f35b34801561017f575f80fd5b50610188610605565b6040516101959190612157565b60405180910390f35b3480156101a9575f80fd5b506101c460048036038101906101bf91906121aa565b610694565b6040516101d19190612214565b60405180910390f35b3480156101e5575f80fd5b5061020060048036038101906101fb9190612257565b6106af565b005b34801561020d575f80fd5b5061022860048036038101906102239190612295565b6106c5565b005b348015610235575f80fd5b50610250600480360381019061024b91906121aa565b6107c4565b6040516102619594939291906122f4565b60405180910390f35b348015610275575f80fd5b50610290600480360381019061028b919061247f565b61092d565b60405161029d9190612507565b60405180910390f35b3480156102b1575f80fd5b506102ba610a62565b005b3480156102c7575f80fd5b506102e260048036038101906102dd9190612295565b610ab7565b005b6102fe60048036038101906102f991906121aa565b610ad6565b005b34801561030b575f80fd5b50610326600480360381019061032191906121aa565b610c17565b6040516103339190612214565b60405180910390f35b348015610347575f80fd5b50610362600480360381019061035d9190612520565b610c28565b60405161036f9190612507565b60405180910390f35b348015610383575f80fd5b5061038c610cde565b005b348015610399575f80fd5b506103a2610cf1565b6040516103af9190612214565b60405180910390f35b3480156103c3575f80fd5b506103cc610d19565b6040516103d99190612157565b60405180910390f35b3480156103ed575f80fd5b5061040860048036038101906104039190612575565b610da9565b005b348015610415575f80fd5b50610430600480360381019061042b91906125b3565b610dbf565b005b34801561043d575f80fd5b506104586004803603810190610453919061268f565b610e7e565b005b348015610465575f80fd5b50610480600480360381019061047b91906121aa565b610e9b565b60405161048d9190612157565b60405180910390f35b3480156104a1575f80fd5b506104aa610f01565b6040516104b79190612507565b60405180910390f35b3480156104cb575f80fd5b506104e660048036038101906104e1919061270f565b610f07565b6040516104f391906120b4565b60405180910390f35b348015610507575f80fd5b50610522600480360381019061051d9190612520565b610f95565b005b5f7f80ac58cd000000000000000000000000000000000000000000000000000000007bffffffffffffffffffffffffffffffffffffffffffffffffffffffff1916827bffffffffffffffffffffffffffffffffffffffffffffffffffffffff191614806105ee57507f5b5e139f000000000000000000000000000000000000000000000000000000007bffffffffffffffffffffffffffffffffffffffffffffffffffffffff1916827bffffffffffffffffffffffffffffffffffffffffffffffffffffffff1916145b806105fe57506105fd82611019565b5b9050919050565b60605f80546106139061277a565b80601f016020809104026020016040519081016040528092919081815260200182805461063f9061277a565b801561068a5780601f106106615761010080835404028352916020019161068a565b820191905f5260205f20905b81548152906001019060200180831161066d57829003601f168201915b5050505050905090565b5f61069e82611082565b506106a882611108565b9050919050565b6106c182826106bc611141565b611148565b5050565b5f73ffffffffffffffffffffffffffffffffffffffff168273ffffffffffffffffffffffffffffffffffffffff1603610735575f6040517f64a0ae9200000000000000000000000000000000000000000000000000000000815260040161072c9190612214565b60405180910390fd5b5f6107488383610743611141565b61115a565b90508373ffffffffffffffffffffffffffffffffffffffff168173ffffffffffffffffffffffffffffffffffffffff16146107be578382826040517f64283d7b0000000000000000000000000000000000000000000000000000000081526004016107b5939291906127aa565b60405180910390fd5b50505050565b6007602052805f5260405f205f91509050805f0180546107e39061277a565b80601f016020809104026020016040519081016040528092919081815260200182805461080f9061277a565b801561085a5780601f106108315761010080835404028352916020019161085a565b820191905f5260205f20905b81548152906001019060200180831161083d57829003601f168201915b50505050509080600101805461086f9061277a565b80601f016020809104026020016040519081016040528092919081815260200182805461089b9061277a565b80156108e65780601f106108bd576101008083540402835291602001916108e6565b820191905f5260205f20905b8154815290600101906020018083116108c957829003601f168201915b505050505090806002015f9054906101000a900473ffffffffffffffffffffffffffffffffffffffff1690806003015490806004015f9054906101000a900460ff16905085565b5f610936611365565b5f60085490506040518060a0016040528086815260200185815260200161095b610cf1565b73ffffffffffffffffffffffffffffffffffffffff1681526020018481526020015f151581525060075f8381526020019081526020015f205f820151815f0190816109a6919061297c565b5060208201518160010190816109bc919061297c565b506040820151816002015f6101000a81548173ffffffffffffffffffffffffffffffffffffffff021916908373ffffffffffffffffffffffffffffffffffffffff160217905550606082015181600301556080820151816004015f6101000a81548160ff021916908315150217905550905050610a40610a3a610cf1565b826113ec565b60085f815480929190610a5290612a78565b9190505550809150509392505050565b610a6a611365565b610a72610cf1565b73ffffffffffffffffffffffffffffffffffffffff166108fc4790811502906040515f60405180830381858888f19350505050158015610ab4573d5f803e3d5ffd5b50565b610ad183838360405180602001604052805f815250610e7e565b505050565b60075f8281526020019081526020015f206004015f9054906101000a900460ff16610b36576040517f08c379a0000000000000000000000000000000000000000000000000000000008152600401610b2d90612b09565b60405180910390fd5b60075f8281526020019081526020015f2060030154341015610b8d576040517f08c379a0000000000000000000000000000000000000000000000000000000008152600401610b8490612b71565b60405180910390fd5b5f610b9782610c17565b9050610ba4813384611409565b5f60075f8481526020019081526020015f206004015f6101000a81548160ff0219169083151502179055508073ffffffffffffffffffffffffffffffffffffffff166108fc3490811502906040515f60405180830381858888f19350505050158015610c12573d5f803e3d5ffd5b505050565b5f610c2182611082565b9050919050565b5f8073ffffffffffffffffffffffffffffffffffffffff168273ffffffffffffffffffffffffffffffffffffffff1603610c99575f6040517f89c62b64000000000000000000000000000000000000000000000000000000008152600401610c909190612214565b60405180910390fd5b60035f8373ffffffffffffffffffffffffffffffffffffffff1673ffffffffffffffffffffffffffffffffffffffff1681526020019081526020015f20549050919050565b610ce6611365565b610cef5f611571565b565b5f60065f9054906101000a900473ffffffffffffffffffffffffffffffffffffffff16905090565b606060018054610d289061277a565b80601f0160208091040260200160405190810160405280929190818152602001828054610d549061277a565b8015610d9f5780601f10610d7657610100808354040283529160200191610d9f565b820191905f5260205f20905b815481529060010190602001808311610d8257829003601f168201915b5050505050905090565b610dbb610db4611141565b8383611634565b5050565b3373ffffffffffffffffffffffffffffffffffffffff16610ddf83610c17565b73ffffffffffffffffffffffffffffffffffffffff1614610e35576040517f08c379a0000000000000000000000000000000000000000000000000000000008152600401610e2c90612bd9565b60405180910390fd5b600160075f8481526020019081526020015f206004015f6101000a81548160ff0219169083151502179055508060075f8481526020019081526020015f20600301819055505050565b610e898484846106c5565b610e958484848461179d565b50505050565b6060610ea682611082565b505f610eb061194f565b90505f815111610ece5760405180602001604052805f815250610ef9565b80610ed884611965565b604051602001610ee9929190612c31565b6040516020818303038152906040525b915050919050565b60085481565b5f60055f8473ffffffffffffffffffffffffffffffffffffffff1673ffffffffffffffffffffffffffffffffffffffff1681526020019081526020015f205f8373ffffffffffffffffffffffffffffffffffffffff1673ffffffffffffffffffffffffffffffffffffffff1681526020019081526020015f205f9054906101000a900460ff16905092915050565b610f9d611365565b5f73ffffffffffffffffffffffffffffffffffffffff168173ffffffffffffffffffffffffffffffffffffffff160361100d575f6040517f1e4fbdf70000000000000000000000000000000000000000000000000000000081526004016110049190612214565b60405180910390fd5b61101681611571565b50565b5f7f01ffc9a7000000000000000000000000000000000000000000000000000000007bffffffffffffffffffffffffffffffffffffffffffffffffffffffff1916827bffffffffffffffffffffffffffffffffffffffffffffffffffffffff1916149050919050565b5f8061108d83611a2f565b90505f73ffffffffffffffffffffffffffffffffffffffff168173ffffffffffffffffffffffffffffffffffffffff16036110ff57826040517f7e2732890000000000000000000000000000000000000000000000000000000081526004016110f69190612507565b60405180910390fd5b80915050919050565b5f60045f8381526020019081526020015f205f9054906101000a900473ffffffffffffffffffffffffffffffffffffffff169050919050565b5f33905090565b6111558383836001611a68565b505050565b5f8061116584611a2f565b90505f73ffffffffffffffffffffffffffffffffffffffff168373ffffffffffffffffffffffffffffffffffffffff16146111a6576111a5818486611c27565b5b5f73ffffffffffffffffffffffffffffffffffffffff168173ffffffffffffffffffffffffffffffffffffffff1614611231576111e55f855f80611a68565b600160035f8373ffffffffffffffffffffffffffffffffffffffff1673ffffffffffffffffffffffffffffffffffffffff1681526020019081526020015f205f82825403925050819055505b5f73ffffffffffffffffffffffffffffffffffffffff168573ffffffffffffffffffffffffffffffffffffffff16146112b057600160035f8773ffffffffffffffffffffffffffffffffffffffff1673ffffffffffffffffffffffffffffffffffffffff1681526020019081526020015f205f82825401925050819055505b8460025f8681526020019081526020015f205f6101000a81548173ffffffffffffffffffffffffffffffffffffffff021916908373ffffffffffffffffffffffffffffffffffffffff160217905550838573ffffffffffffffffffffffffffffffffffffffff168273ffffffffffffffffffffffffffffffffffffffff167fddf252ad1be2c89b69c2b068fc378daa952ba7f163c4a11628f55a4df523b3ef60405160405180910390a4809150509392505050565b61136d611141565b73ffffffffffffffffffffffffffffffffffffffff1661138b610cf1565b73ffffffffffffffffffffffffffffffffffffffff16146113ea576113ae611141565b6040517f118cdaa70000000000000000000000000000000000000000000000000000000081526004016113e19190612214565b60405180910390fd5b565b611405828260405180602001604052805f815250611cea565b5050565b5f73ffffffffffffffffffffffffffffffffffffffff168273ffffffffffffffffffffffffffffffffffffffff1603611479575f6040517f64a0ae920000000000000000000000000000000000000000000000000000000081526004016114709190612214565b60405180910390fd5b5f61148583835f61115a565b90505f73ffffffffffffffffffffffffffffffffffffffff168173ffffffffffffffffffffffffffffffffffffffff16036114f757816040517f7e2732890000000000000000000000000000000000000000000000000000000081526004016114ee9190612507565b60405180910390fd5b8373ffffffffffffffffffffffffffffffffffffffff168173ffffffffffffffffffffffffffffffffffffffff161461156b578382826040517f64283d7b000000000000000000000000000000000000000000000000000000008152600401611562939291906127aa565b60405180910390fd5b50505050565b5f60065f9054906101000a900473ffffffffffffffffffffffffffffffffffffffff1690508160065f6101000a81548173ffffffffffffffffffffffffffffffffffffffff021916908373ffffffffffffffffffffffffffffffffffffffff1602179055508173ffffffffffffffffffffffffffffffffffffffff168173ffffffffffffffffffffffffffffffffffffffff167f8be0079c531659141344cd1fd0a4f28419497f9722a3daafe3b4186f6b6457e060405160405180910390a35050565b5f73ffffffffffffffffffffffffffffffffffffffff168273ffffffffffffffffffffffffffffffffffffffff16036116a457816040517f5b08ba1800000000000000000000000000000000000000000000000000000000815260040161169b9190612214565b60405180910390fd5b8060055f8573ffffffffffffffffffffffffffffffffffffffff1673ffffffffffffffffffffffffffffffffffffffff1681526020019081526020015f205f8473ffffffffffffffffffffffffffffffffffffffff1673ffffffffffffffffffffffffffffffffffffffff1681526020019081526020015f205f6101000a81548160ff0219169083151502179055508173ffffffffffffffffffffffffffffffffffffffff168373ffffffffffffffffffffffffffffffffffffffff167f17307eab39ab6107e8899845ad3d59bd9653f200f220920489ca2b5937696c318360405161179091906120b4565b60405180910390a3505050565b5f8373ffffffffffffffffffffffffffffffffffffffff163b1115611949578273ffffffffffffffffffffffffffffffffffffffff1663150b7a026117e0611141565b8685856040518563ffffffff1660e01b81526004016118029493929190612ca6565b6020604051808303815f875af192505050801561183d57506040513d601f19601f8201168201806040525081019061183a9190612d04565b60015b6118be573d805f811461186b576040519150601f19603f3d011682016040523d82523d5f602084013e611870565b606091505b505f8151036118b657836040517f64a0ae920000000000000000000000000000000000000000000000000000000081526004016118ad9190612214565b60405180910390fd5b805181602001fd5b63150b7a0260e01b7bffffffffffffffffffffffffffffffffffffffffffffffffffffffff1916817bffffffffffffffffffffffffffffffffffffffffffffffffffffffff19161461194757836040517f64a0ae9200000000000000000000000000000000000000000000000000000000815260040161193e9190612214565b60405180910390fd5b505b50505050565b606060405180602001604052805f815250905090565b60605f600161197384611d05565b0190505f8167ffffffffffffffff8111156119915761199061235b565b5b6040519080825280601f01601f1916602001820160405280156119c35781602001600182028036833780820191505090505b5090505f82602001820190505b600115611a24578080600190039150507f3031323334353637383961626364656600000000000000000000000000000000600a86061a8153600a8581611a1957611a18612d2f565b5b0494505f85036119d0575b819350505050919050565b5f60025f8381526020019081526020015f205f9054906101000a900473ffffffffffffffffffffffffffffffffffffffff169050919050565b8080611aa057505f73ffffffffffffffffffffffffffffffffffffffff168273ffffffffffffffffffffffffffffffffffffffff1614155b15611bd2575f611aaf84611082565b90505f73ffffffffffffffffffffffffffffffffffffffff168373ffffffffffffffffffffffffffffffffffffffff1614158015611b1957508273ffffffffffffffffffffffffffffffffffffffff168173ffffffffffffffffffffffffffffffffffffffff1614155b8015611b2c5750611b2a8184610f07565b155b15611b6e57826040517fa9fbf51f000000000000000000000000000000000000000000000000000000008152600401611b659190612214565b60405180910390fd5b8115611bd057838573ffffffffffffffffffffffffffffffffffffffff168273ffffffffffffffffffffffffffffffffffffffff167f8c5be1e5ebec7d5bd14f71427d1e84f3dd0314c0f7b2291e5b200ac8c7c3b92560405160405180910390a45b505b8360045f8581526020019081526020015f205f6101000a81548173ffffffffffffffffffffffffffffffffffffffff021916908373ffffffffffffffffffffffffffffffffffffffff16021790555050505050565b611c32838383611e56565b611ce5575f73ffffffffffffffffffffffffffffffffffffffff168373ffffffffffffffffffffffffffffffffffffffff1603611ca657806040517f7e273289000000000000000000000000000000000000000000000000000000008152600401611c9d9190612507565b60405180910390fd5b81816040517f177e802f000000000000000000000000000000000000000000000000000000008152600401611cdc929190612d5c565b60405180910390fd5b505050565b611cf48383611f16565b611d005f84848461179d565b505050565b5f805f90507a184f03e93ff9f4daa797ed6e38ed64bf6a1f0100000000000000008310611d61577a184f03e93ff9f4daa797ed6e38ed64bf6a1f0100000000000000008381611d5757611d56612d2f565b5b0492506040810190505b6d04ee2d6d415b85acef81000000008310611d9e576d04ee2d6d415b85acef81000000008381611d9457611d93612d2f565b5b0492506020810190505b662386f26fc100008310611dcd57662386f26fc100008381611dc357611dc2612d2f565b5b0492506010810190505b6305f5e1008310611df6576305f5e1008381611dec57611deb612d2f565b5b0492506008810190505b6127108310611e1b576127108381611e1157611e10612d2f565b5b0492506004810190505b60648310611e3e5760648381611e3457611e33612d2f565b5b0492506002810190505b600a8310611e4d576001810190505b80915050919050565b5f8073ffffffffffffffffffffffffffffffffffffffff168373ffffffffffffffffffffffffffffffffffffffff1614158015611f0d57508273ffffffffffffffffffffffffffffffffffffffff168473ffffffffffffffffffffffffffffffffffffffff161480611ece5750611ecd8484610f07565b5b80611f0c57508273ffffffffffffffffffffffffffffffffffffffff16611ef483611108565b73ffffffffffffffffffffffffffffffffffffffff16145b5b90509392505050565b5f73ffffffffffffffffffffffffffffffffffffffff168273ffffffffffffffffffffffffffffffffffffffff1603611f86575f6040517f64a0ae92000000000000000000000000000000000000000000000000000000008152600401611f7d9190612214565b60405180910390fd5b5f611f9283835f61115a565b90505f73ffffffffffffffffffffffffffffffffffffffff168173ffffffffffffffffffffffffffffffffffffffff1614612004575f6040517f73c6ac6e000000000000000000000000000000000000000000000000000000008152600401611ffb9190612214565b60405180910390fd5b505050565b5f604051905090565b5f80fd5b5f80fd5b5f7fffffffff0000000000000000000000000000000000000000000000000000000082169050919050565b61204e8161201a565b8114612058575f80fd5b50565b5f8135905061206981612045565b92915050565b5f6020828403121561208457612083612012565b5b5f6120918482850161205b565b91505092915050565b5f8115159050919050565b6120ae8161209a565b82525050565b5f6020820190506120c75f8301846120a5565b92915050565b5f81519050919050565b5f82825260208201905092915050565b5f5b838110156121045780820151818401526020810190506120e9565b5f8484015250505050565b5f601f19601f8301169050919050565b5f612129826120cd565b61213381856120d7565b93506121438185602086016120e7565b61214c8161210f565b840191505092915050565b5f6020820190508181035f83015261216f818461211f565b905092915050565b5f819050919050565b61218981612177565b8114612193575f80fd5b50565b5f813590506121a481612180565b92915050565b5f602082840312156121bf576121be612012565b5b5f6121cc84828501612196565b91505092915050565b5f73ffffffffffffffffffffffffffffffffffffffff82169050919050565b5f6121fe826121d5565b9050919050565b61220e816121f4565b82525050565b5f6020820190506122275f830184612205565b92915050565b612236816121f4565b8114612240575f80fd5b50565b5f813590506122518161222d565b92915050565b5f806040838503121561226d5761226c612012565b5b5f61227a85828601612243565b925050602061228b85828601612196565b9150509250929050565b5f805f606084860312156122ac576122ab612012565b5b5f6122b986828701612243565b93505060206122ca86828701612243565b92505060406122db86828701612196565b9150509250925092565b6122ee81612177565b82525050565b5f60a0820190508181035f83015261230c818861211f565b90508181036020830152612320818761211f565b905061232f6040830186612205565b61233c60608301856122e5565b61234960808301846120a5565b9695505050505050565b5f80fd5b5f80fd5b7f4e487b71000000000000000000000000000000000000000000000000000000005f52604160045260245ffd5b6123918261210f565b810181811067ffffffffffffffff821117156123b0576123af61235b565b5b80604052505050565b5f6123c2612009565b90506123ce8282612388565b919050565b5f67ffffffffffffffff8211156123ed576123ec61235b565b5b6123f68261210f565b9050602081019050919050565b828183375f83830152505050565b5f61242361241e846123d3565b6123b9565b90508281526020810184848401111561243f5761243e612357565b5b61244a848285612403565b509392505050565b5f82601f83011261246657612465612353565b5b8135612476848260208601612411565b91505092915050565b5f805f6060848603121561249657612495612012565b5b5f84013567ffffffffffffffff8111156124b3576124b2612016565b5b6124bf86828701612452565b935050602084013567ffffffffffffffff8111156124e0576124df612016565b5b6124ec86828701612452565b92505060406124fd86828701612196565b9150509250925092565b5f60208201905061251a5f8301846122e5565b92915050565b5f6020828403121561253557612534612012565b5b5f61254284828501612243565b91505092915050565b6125548161209a565b811461255e575f80fd5b50565b5f8135905061256f8161254b565b92915050565b5f806040838503121561258b5761258a612012565b5b5f61259885828601612243565b92505060206125a985828601612561565b9150509250929050565b5f80604083850312156125c9576125c8612012565b5b5f6125d685828601612196565b92505060206125e785828601612196565b9150509250929050565b5f67ffffffffffffffff82111561260b5761260a61235b565b5b6126148261210f565b9050602081019050919050565b5f61263361262e846125f1565b6123b9565b90508281526020810184848401111561264f5761264e612357565b5b61265a848285612403565b509392505050565b5f82601f83011261267657612675612353565b5b8135612686848260208601612621565b91505092915050565b5f805f80608085870312156126a7576126a6612012565b5b5f6126b487828801612243565b94505060206126c587828801612243565b93505060406126d687828801612196565b925050606085013567ffffffffffffffff8111156126f7576126f6612016565b5b61270387828801612662565b91505092959194509250565b5f806040838503121561272557612724612012565b5b5f61273285828601612243565b925050602061274385828601612243565b9150509250929050565b7f4e487b71000000000000000000000000000000000000000000000000000000005f52602260045260245ffd5b5f600282049050600182168061279157607f821691505b6020821081036127a4576127a361274d565b5b50919050565b5f6060820190506127bd5f830186612205565b6127ca60208301856122e5565b6127d76040830184612205565b949350505050565b5f819050815f5260205f209050919050565b5f6020601f8301049050919050565b5f82821b905092915050565b5f6008830261283b7fffffffffffffffffffffffffffffffffffffffffffffffffffffffffffffffff82612800565b6128458683612800565b95508019841693508086168417925050509392505050565b5f819050919050565b5f61288061287b61287684612177565b61285d565b612177565b9050919050565b5f819050919050565b61289983612866565b6128ad6128a582612887565b84845461280c565b825550505050565b5f90565b6128c16128b5565b6128cc818484612890565b505050565b5b818110156128ef576128e45f826128b9565b6001810190506128d2565b5050565b601f82111561293457612905816127df565b61290e846127f1565b8101602085101561291d578190505b612931612929856127f1565b8301826128d1565b50505b505050565b5f82821c905092915050565b5f6129545f1984600802612939565b1980831691505092915050565b5f61296c8383612945565b9150826002028217905092915050565b612985826120cd565b67ffffffffffffffff81111561299e5761299d61235b565b5b6129a8825461277a565b6129b38282856128f3565b5f60209050601f8311600181146129e4575f84156129d2578287015190505b6129dc8582612961565b865550612a43565b601f1984166129f2866127df565b5f5b82811015612a19578489015182556001820191506020850194506020810190506129f4565b86831015612a365784890151612a32601f891682612945565b8355505b6001600288020188555050505b505050505050565b7f4e487b71000000000000000000000000000000000000000000000000000000005f52601160045260245ffd5b5f612a8282612177565b91507fffffffffffffffffffffffffffffffffffffffffffffffffffffffffffffffff8203612ab457612ab3612a4b565b5b600182019050919050565b7f4e4654206973206e6f7420666f722073616c65000000000000000000000000005f82015250565b5f612af36013836120d7565b9150612afe82612abf565b602082019050919050565b5f6020820190508181035f830152612b2081612ae7565b9050919050565b7f496e73756666696369656e742066756e647300000000000000000000000000005f82015250565b5f612b5b6012836120d7565b9150612b6682612b27565b602082019050919050565b5f6020820190508181035f830152612b8881612b4f565b9050919050565b7f596f7520646f6e2774206f776e2074686973204e4654000000000000000000005f82015250565b5f612bc36016836120d7565b9150612bce82612b8f565b602082019050919050565b5f6020820190508181035f830152612bf081612bb7565b9050919050565b5f81905092915050565b5f612c0b826120cd565b612c158185612bf7565b9350612c258185602086016120e7565b80840191505092915050565b5f612c3c8285612c01565b9150612c488284612c01565b91508190509392505050565b5f81519050919050565b5f82825260208201905092915050565b5f612c7882612c54565b612c828185612c5e565b9350612c928185602086016120e7565b612c9b8161210f565b840191505092915050565b5f608082019050612cb95f830187612205565b612cc66020830186612205565b612cd360408301856122e5565b8181036060830152612ce58184612c6e565b905095945050505050565b5f81519050612cfe81612045565b92915050565b5f60208284031215612d1957612d18612012565b5b5f612d2684828501612cf0565b91505092915050565b7f4e487b71000000000000000000000000000000000000000000000000000000005f52601260045260245ffd5b5f604082019050612d6f5f830185612205565b612d7c60208301846122e5565b939250505056fea2646970667358221220f3a418a967bf804a296552fd7a927993d52ab244a32279c400c1fba718fa443e64736f6c63430008140033",
  "immutableReferences": {},
  "source": "// SPDX-License-Identifier: MIT\r\npragma solidity ^0.8.20;\r\n\r\nimport \"@openzeppelin/contracts/token/ERC721/ERC721.sol\";\r\nimport \"@openzeppelin/contracts/access/Ownable.sol\";\r\n\r\ncontract NFTMarketplace is ERC721, Ownable {\r\n    struct NFT {\r\n        string name;\r\n        string description;\r\n        address owner;\r\n        uint256 price;\r\n        bool forSale;\r\n    }\r\n\r\n    mapping(uint256 => NFT) public nfts;\r\n\r\n    uint256 public tokenCounter;\r\n\r\n    constructor(string memory name, string memory symbol, address initialOwner) ERC721(name, symbol) Ownable(initialOwner) {\r\n        tokenCounter = 0;\r\n    }\r\n\r\n    function createNFT(string memory _name, string memory _description, uint256 _price) public onlyOwner returns (uint256) {\r\n        uint256 newItemId = tokenCounter;\r\n        nfts[newItemId] = NFT({\r\n            name: _name,\r\n            description: _description,\r\n            owner: owner(),\r\n            price: _price,\r\n            forSale: false\r\n        });\r\n        _safeMint(owner(), newItemId);\r\n        tokenCounter++;\r\n        return newItemId;\r\n    }\r\n\r\n    function listNFTForSale(uint256 _tokenId, uint256 _price) public {\r\n        require(ownerOf(_tokenId) == msg.sender, \"You don't own this NFT\");\r\n        nfts[_tokenId].forSale = true;\r\n        nfts[_tokenId].price = _price;\r\n    }\r\n\r\n    function buyNFT(uint256 _tokenId) public payable {\r\n        require(nfts[_tokenId].forSale, \"NFT is not for sale\");\r\n        require(msg.value >= nfts[_tokenId].price, \"Insufficient funds\");\r\n        address seller = ownerOf(_tokenId);\r\n        _transfer(seller, msg.sender, _tokenId);\r\n        nfts[_tokenId].forSale = false;\r\n        payable(seller).transfer(msg.value);\r\n    }\r\n\r\n    function withdraw() external onlyOwner {\r\n        payable(owner()).transfer(address(this).balance);\r\n    }\r\n}\r\n",
  "sourcePath": "D:\\Block_CHain_Project\\nft-platform\\contracts\\nft.sol",
  "compiler": {
    "name": "solc",
    "version": "0.8.20+commit.a1b79de6.Emscripten.clang"
  },
  "schemaVersion": "3.4.16",
  "updatedAt": "2024-06-07T08:43:22.374Z",
  "devdoc": {
    "errors": {
      "ERC721IncorrectOwner(address,uint256,address)": [
        {
          "details": "Indicates an error related to the ownership over a particular token. Used in transfers.",
          "params": {
            "owner": "Address of the current owner of a token.",
            "sender": "Address whose tokens are being transferred.",
            "tokenId": "Identifier number of a token."
          }
        }
      ],
      "ERC721InsufficientApproval(address,uint256)": [
        {
          "details": "Indicates a failure with the `operator`s approval. Used in transfers.",
          "params": {
            "operator": "Address that may be allowed to operate on tokens without being their owner.",
            "tokenId": "Identifier number of a token."
          }
        }
      ],
      "ERC721InvalidApprover(address)": [
        {
          "details": "Indicates a failure with the `approver` of a token to be approved. Used in approvals.",
          "params": {
            "approver": "Address initiating an approval operation."
          }
        }
      ],
      "ERC721InvalidOperator(address)": [
        {
          "details": "Indicates a failure with the `operator` to be approved. Used in approvals.",
          "params": {
            "operator": "Address that may be allowed to operate on tokens without being their owner."
          }
        }
      ],
      "ERC721InvalidOwner(address)": [
        {
          "details": "Indicates that an address can't be an owner. For example, `address(0)` is a forbidden owner in EIP-20. Used in balance queries.",
          "params": {
            "owner": "Address of the current owner of a token."
          }
        }
      ],
      "ERC721InvalidReceiver(address)": [
        {
          "details": "Indicates a failure with the token `receiver`. Used in transfers.",
          "params": {
            "receiver": "Address to which tokens are being transferred."
          }
        }
      ],
      "ERC721InvalidSender(address)": [
        {
          "details": "Indicates a failure with the token `sender`. Used in transfers.",
          "params": {
            "sender": "Address whose tokens are being transferred."
          }
        }
      ],
      "ERC721NonexistentToken(uint256)": [
        {
          "details": "Indicates a `tokenId` whose `owner` is the zero address.",
          "params": {
            "tokenId": "Identifier number of a token."
          }
        }
      ],
      "OwnableInvalidOwner(address)": [
        {
          "details": "The owner is not a valid owner account. (eg. `address(0)`)"
        }
      ],
      "OwnableUnauthorizedAccount(address)": [
        {
          "details": "The caller account is not authorized to perform an operation."
        }
      ]
    },
    "events": {
      "Approval(address,address,uint256)": {
        "details": "Emitted when `owner` enables `approved` to manage the `tokenId` token."
      },
      "ApprovalForAll(address,address,bool)": {
        "details": "Emitted when `owner` enables or disables (`approved`) `operator` to manage all of its assets."
      },
      "Transfer(address,address,uint256)": {
        "details": "Emitted when `tokenId` token is transferred from `from` to `to`."
      }
    },
    "kind": "dev",
    "methods": {
      "approve(address,uint256)": {
        "details": "See {IERC721-approve}."
      },
      "balanceOf(address)": {
        "details": "See {IERC721-balanceOf}."
      },
      "getApproved(uint256)": {
        "details": "See {IERC721-getApproved}."
      },
      "isApprovedForAll(address,address)": {
        "details": "See {IERC721-isApprovedForAll}."
      },
      "name()": {
        "details": "See {IERC721Metadata-name}."
      },
      "owner()": {
        "details": "Returns the address of the current owner."
      },
      "ownerOf(uint256)": {
        "details": "See {IERC721-ownerOf}."
      },
      "renounceOwnership()": {
        "details": "Leaves the contract without owner. It will not be possible to call `onlyOwner` functions. Can only be called by the current owner. NOTE: Renouncing ownership will leave the contract without an owner, thereby disabling any functionality that is only available to the owner."
      },
      "safeTransferFrom(address,address,uint256)": {
        "details": "See {IERC721-safeTransferFrom}."
      },
      "safeTransferFrom(address,address,uint256,bytes)": {
        "details": "See {IERC721-safeTransferFrom}."
      },
      "setApprovalForAll(address,bool)": {
        "details": "See {IERC721-setApprovalForAll}."
      },
      "supportsInterface(bytes4)": {
        "details": "See {IERC165-supportsInterface}."
      },
      "symbol()": {
        "details": "See {IERC721Metadata-symbol}."
      },
      "tokenURI(uint256)": {
        "details": "See {IERC721Metadata-tokenURI}."
      },
      "transferFrom(address,address,uint256)": {
        "details": "See {IERC721-transferFrom}."
      },
      "transferOwnership(address)": {
        "details": "Transfers ownership of the contract to a new account (`newOwner`). Can only be called by the current owner."
      }
    },
    "version": 1
  },
  "userdoc": {
    "kind": "user",
    "methods": {},
    "version": 1
  }
}