{
  "contractName": "NFTmarketplace",
  "abi": [
    {
      "inputs": [],
      "stateMutability": "nonpayable",
      "type": "constructor"
    },
    {
      "inputs": [
        {
          "internalType": "address",
          "name": "sender",
          "type": "address"
        },
        {
          "internalType": "uint256",
          "name": "tokenId",
          "type": "uint256"
        },
        {
          "internalType": "address",
          "name": "owner",
          "type": "address"
        }
      ],
      "name": "ERC721IncorrectOwner",
      "type": "error"
    },
    {
      "inputs": [
        {
          "internalType": "address",
          "name": "operator",
          "type": "address"
        },
        {
          "internalType": "uint256",
          "name": "tokenId",
          "type": "uint256"
        }
      ],
      "name": "ERC721InsufficientApproval",
      "type": "error"
    },
    {
      "inputs": [
        {
          "internalType": "address",
          "name": "approver",
          "type": "address"
        }
      ],
      "name": "ERC721InvalidApprover",
      "type": "error"
    },
    {
      "inputs": [
        {
          "internalType": "address",
          "name": "operator",
          "type": "address"
        }
      ],
      "name": "ERC721InvalidOperator",
      "type": "error"
    },
    {
      "inputs": [
        {
          "internalType": "address",
          "name": "owner",
          "type": "address"
        }
      ],
      "name": "ERC721InvalidOwner",
      "type": "error"
    },
    {
      "inputs": [
        {
          "internalType": "address",
          "name": "receiver",
          "type": "address"
        }
      ],
      "name": "ERC721InvalidReceiver",
      "type": "error"
    },
    {
      "inputs": [
        {
          "internalType": "address",
          "name": "sender",
          "type": "address"
        }
      ],
      "name": "ERC721InvalidSender",
      "type": "error"
    },
    {
      "inputs": [
        {
          "internalType": "uint256",
          "name": "tokenId",
          "type": "uint256"
        }
      ],
      "name": "ERC721NonexistentToken",
      "type": "error"
    },
    {
      "anonymous": false,
      "inputs": [
        {
          "indexed": true,
          "internalType": "address",
          "name": "owner",
          "type": "address"
        },
        {
          "indexed": true,
          "internalType": "address",
          "name": "approved",
          "type": "address"
        },
        {
          "indexed": true,
          "internalType": "uint256",
          "name": "tokenId",
          "type": "uint256"
        }
      ],
      "name": "Approval",
      "type": "event"
    },
    {
      "anonymous": false,
      "inputs": [
        {
          "indexed": true,
          "internalType": "address",
          "name": "owner",
          "type": "address"
        },
        {
          "indexed": true,
          "internalType": "address",
          "name": "operator",
          "type": "address"
        },
        {
          "indexed": false,
          "internalType": "bool",
          "name": "approved",
          "type": "bool"
        }
      ],
      "name": "ApprovalForAll",
      "type": "event"
    },
    {
      "anonymous": false,
      "inputs": [
        {
          "indexed": false,
          "internalType": "uint256",
          "name": "_fromTokenId",
          "type": "uint256"
        },
        {
          "indexed": false,
          "internalType": "uint256",
          "name": "_toTokenId",
          "type": "uint256"
        }
      ],
      "name": "BatchMetadataUpdate",
      "type": "event"
    },
    {
      "anonymous": false,
      "inputs": [
        {
          "indexed": false,
          "internalType": "uint256",
          "name": "_tokenId",
          "type": "uint256"
        }
      ],
      "name": "MetadataUpdate",
      "type": "event"
    },
    {
      "anonymous": false,
      "inputs": [
        {
          "indexed": true,
          "internalType": "address",
          "name": "from",
          "type": "address"
        },
        {
          "indexed": true,
          "internalType": "address",
          "name": "to",
          "type": "address"
        },
        {
          "indexed": true,
          "internalType": "uint256",
          "name": "tokenId",
          "type": "uint256"
        }
      ],
      "name": "Transfer",
      "type": "event"
    },
    {
      "anonymous": false,
      "inputs": [
        {
          "indexed": true,
          "internalType": "uint256",
          "name": "tokenId",
          "type": "uint256"
        },
        {
          "indexed": false,
          "internalType": "address",
          "name": "seller",
          "type": "address"
        },
        {
          "indexed": false,
          "internalType": "address",
          "name": "owner",
          "type": "address"
        },
        {
          "indexed": false,
          "internalType": "uint256",
          "name": "price",
          "type": "uint256"
        },
        {
          "indexed": false,
          "internalType": "bool",
          "name": "sold",
          "type": "bool"
        }
      ],
      "name": "idMarketItemCreated",
      "type": "event"
    },
    {
      "inputs": [
        {
          "internalType": "address",
          "name": "to",
          "type": "address"
        },
        {
          "internalType": "uint256",
          "name": "tokenId",
          "type": "uint256"
        }
      ],
      "name": "approve",
      "outputs": [],
      "stateMutability": "nonpayable",
      "type": "function"
    },
    {
      "inputs": [
        {
          "internalType": "address",
          "name": "owner",
          "type": "address"
        }
      ],
      "name": "balanceOf",
      "outputs": [
        {
          "internalType": "uint256",
          "name": "",
          "type": "uint256"
        }
      ],
      "stateMutability": "view",
      "type": "function"
    },
    {
      "inputs": [
        {
          "internalType": "uint256",
          "name": "tokenId",
          "type": "uint256"
        }
      ],
      "name": "getApproved",
      "outputs": [
        {
          "internalType": "address",
          "name": "",
          "type": "address"
        }
      ],
      "stateMutability": "view",
      "type": "function"
    },
    {
      "inputs": [
        {
          "internalType": "address",
          "name": "owner",
          "type": "address"
        },
        {
          "internalType": "address",
          "name": "operator",
          "type": "address"
        }
      ],
      "name": "isApprovedForAll",
      "outputs": [
        {
          "internalType": "bool",
          "name": "",
          "type": "bool"
        }
      ],
      "stateMutability": "view",
      "type": "function"
    },
    {
      "inputs": [],
      "name": "name",
      "outputs": [
        {
          "internalType": "string",
          "name": "",
          "type": "string"
        }
      ],
      "stateMutability": "view",
      "type": "function"
    },
    {
      "inputs": [
        {
          "internalType": "uint256",
          "name": "tokenId",
          "type": "uint256"
        }
      ],
      "name": "ownerOf",
      "outputs": [
        {
          "internalType": "address",
          "name": "",
          "type": "address"
        }
      ],
      "stateMutability": "view",
      "type": "function"
    },
    {
      "inputs": [
        {
          "internalType": "address",
          "name": "from",
          "type": "address"
        },
        {
          "internalType": "address",
          "name": "to",
          "type": "address"
        },
        {
          "internalType": "uint256",
          "name": "tokenId",
          "type": "uint256"
        }
      ],
      "name": "safeTransferFrom",
      "outputs": [],
      "stateMutability": "nonpayable",
      "type": "function"
    },
    {
      "inputs": [
        {
          "internalType": "address",
          "name": "from",
          "type": "address"
        },
        {
          "internalType": "address",
          "name": "to",
          "type": "address"
        },
        {
          "internalType": "uint256",
          "name": "tokenId",
          "type": "uint256"
        },
        {
          "internalType": "bytes",
          "name": "data",
          "type": "bytes"
        }
      ],
      "name": "safeTransferFrom",
      "outputs": [],
      "stateMutability": "nonpayable",
      "type": "function"
    },
    {
      "inputs": [
        {
          "internalType": "address",
          "name": "operator",
          "type": "address"
        },
        {
          "internalType": "bool",
          "name": "approved",
          "type": "bool"
        }
      ],
      "name": "setApprovalForAll",
      "outputs": [],
      "stateMutability": "nonpayable",
      "type": "function"
    },
    {
      "inputs": [
        {
          "internalType": "bytes4",
          "name": "interfaceId",
          "type": "bytes4"
        }
      ],
      "name": "supportsInterface",
      "outputs": [
        {
          "internalType": "bool",
          "name": "",
          "type": "bool"
        }
      ],
      "stateMutability": "view",
      "type": "function"
    },
    {
      "inputs": [],
      "name": "symbol",
      "outputs": [
        {
          "internalType": "string",
          "name": "",
          "type": "string"
        }
      ],
      "stateMutability": "view",
      "type": "function"
    },
    {
      "inputs": [
        {
          "internalType": "uint256",
          "name": "tokenId",
          "type": "uint256"
        }
      ],
      "name": "tokenURI",
      "outputs": [
        {
          "internalType": "string",
          "name": "",
          "type": "string"
        }
      ],
      "stateMutability": "view",
      "type": "function"
    },
    {
      "inputs": [
        {
          "internalType": "address",
          "name": "from",
          "type": "address"
        },
        {
          "internalType": "address",
          "name": "to",
          "type": "address"
        },
        {
          "internalType": "uint256",
          "name": "tokenId",
          "type": "uint256"
        }
      ],
      "name": "transferFrom",
      "outputs": [],
      "stateMutability": "nonpayable",
      "type": "function"
    },
    {
      "inputs": [
        {
          "internalType": "uint256",
          "name": "_listingPrice",
          "type": "uint256"
        }
      ],
      "name": "updateListingPrice",
      "outputs": [],
      "stateMutability": "payable",
      "type": "function"
    },
    {
      "inputs": [],
      "name": "getListingPrice",
      "outputs": [
        {
          "internalType": "uint256",
          "name": "",
          "type": "uint256"
        }
      ],
      "stateMutability": "view",
      "type": "function"
    },
    {
      "inputs": [
        {
          "internalType": "string",
          "name": "tokenURI",
          "type": "string"
        },
        {
          "internalType": "uint256",
          "name": "price",
          "type": "uint256"
        }
      ],
      "name": "createToken",
      "outputs": [
        {
          "internalType": "uint256",
          "name": "",
          "type": "uint256"
        }
      ],
      "stateMutability": "payable",
      "type": "function"
    },
    {
      "inputs": [
        {
          "internalType": "uint256",
          "name": "tokenId",
          "type": "uint256"
        },
        {
          "internalType": "uint256",
          "name": "price",
          "type": "uint256"
        }
      ],
      "name": "reSellToken",
      "outputs": [],
      "stateMutability": "payable",
      "type": "function"
    },
    {
      "inputs": [
        {
          "internalType": "uint256",
          "name": "tokenId",
          "type": "uint256"
        }
      ],
      "name": "createMarketSale",
      "outputs": [],
      "stateMutability": "payable",
      "type": "function"
    },
    {
      "inputs": [],
      "name": "fetchMarketItem",
      "outputs": [
        {
          "components": [
            {
              "internalType": "uint256",
              "name": "tokenId",
              "type": "uint256"
            },
            {
              "internalType": "address payable",
              "name": "seller",
              "type": "address"
            },
            {
              "internalType": "address payable",
              "name": "owner",
              "type": "address"
            },
            {
              "internalType": "uint256",
              "name": "price",
              "type": "uint256"
            },
            {
              "internalType": "bool",
              "name": "sold",
              "type": "bool"
            }
          ],
          "internalType": "struct NFTmarketplace.MarketItem[]",
          "name": "",
          "type": "tuple[]"
        }
      ],
      "stateMutability": "view",
      "type": "function"
    },
    {
      "inputs": [],
      "name": "fetchMyNFT",
      "outputs": [
        {
          "components": [
            {
              "internalType": "uint256",
              "name": "tokenId",
              "type": "uint256"
            },
            {
              "internalType": "address payable",
              "name": "seller",
              "type": "address"
            },
            {
              "internalType": "address payable",
              "name": "owner",
              "type": "address"
            },
            {
              "internalType": "uint256",
              "name": "price",
              "type": "uint256"
            },
            {
              "internalType": "bool",
              "name": "sold",
              "type": "bool"
            }
          ],
          "internalType": "struct NFTmarketplace.MarketItem[]",
          "name": "",
          "type": "tuple[]"
        }
      ],
      "stateMutability": "view",
      "type": "function"
    },
    {
      "inputs": [],
      "name": "fetchItemsListed",
      "outputs": [
        {
          "components": [
            {
              "internalType": "uint256",
              "name": "tokenId",
              "type": "uint256"
            },
            {
              "internalType": "address payable",
              "name": "seller",
              "type": "address"
            },
            {
              "internalType": "address payable",
              "name": "owner",
              "type": "address"
            },
            {
              "internalType": "uint256",
              "name": "price",
              "type": "uint256"
            },
            {
              "internalType": "bool",
              "name": "sold",
              "type": "bool"
            }
          ],
          "internalType": "struct NFTmarketplace.MarketItem[]",
          "name": "",
          "type": "tuple[]"
        }
      ],
      "stateMutability": "view",
      "type": "function"
    }
  ],
  "bytecode": "0x60806040526608e1bc9bf040006009553480156200001b575f80fd5b506040518060400160405280601381526020017f4e4654204d656174766572736520546f6b656e000000000000000000000000008152506040518060400160405280600581526020017f4d594e4654000000000000000000000000000000000000000000000000000000815250815f908162000098919062000357565b508060019081620000aa919062000357565b50505033600a5f6101000a81548173ffffffffffffffffffffffffffffffffffffffff021916908373ffffffffffffffffffffffffffffffffffffffff1602179055506200043b565b5f81519050919050565b7f4e487b71000000000000000000000000000000000000000000000000000000005f52604160045260245ffd5b7f4e487b71000000000000000000000000000000000000000000000000000000005f52602260045260245ffd5b5f60028204905060018216806200016f57607f821691505b6020821081036200018557620001846200012a565b5b50919050565b5f819050815f5260205f209050919050565b5f6020601f8301049050919050565b5f82821b905092915050565b5f60088302620001e97fffffffffffffffffffffffffffffffffffffffffffffffffffffffffffffffff82620001ac565b620001f58683620001ac565b95508019841693508086168417925050509392505050565b5f819050919050565b5f819050919050565b5f6200023f6200023962000233846200020d565b62000216565b6200020d565b9050919050565b5f819050919050565b6200025a836200021f565b62000272620002698262000246565b848454620001b8565b825550505050565b5f90565b620002886200027a565b620002958184846200024f565b505050565b5b81811015620002bc57620002b05f826200027e565b6001810190506200029b565b5050565b601f8211156200030b57620002d5816200018b565b620002e0846200019d565b81016020851015620002f0578190505b62000308620002ff856200019d565b8301826200029a565b50505b505050565b5f82821c905092915050565b5f6200032d5f198460080262000310565b1980831691505092915050565b5f6200034783836200031c565b9150826002028217905092915050565b6200036282620000f3565b67ffffffffffffffff8111156200037e576200037d620000fd565b5b6200038a825462000157565b62000397828285620002c0565b5f60209050601f831160018114620003cd575f8415620003b8578287015190505b620003c485826200033a565b86555062000433565b601f198416620003dd866200018b565b5f5b828110156200040657848901518255600182019150602085019450602081019050620003df565b8683101562000426578489015162000422601f8916826200031c565b8355505b6001600288020188555050505b505050505050565b613b3f80620004495f395ff3fe608060405260043610610129575f3560e01c806372b3b620116100aa578063ae677aa31161006e578063ae677aa3146103db578063b88d4fde146103f7578063be9af5361461041f578063c18763f71461043b578063c87b56dd14610465578063e985e9c5146104a157610129565b806372b3b6201461031357806385535b25146103435780638fafd0211461035f57806395d89b4114610389578063a22cb465146103b357610129565b806323b872dd116100f157806323b872dd1461022157806342842e0e1461024957806345f8fa80146102715780636352211e1461029b57806370a08231146102d757610129565b806301ffc9a71461012d57806306fdde0314610169578063081812fc14610193578063095ea7b3146101cf57806312e85585146101f7575b5f80fd5b348015610138575f80fd5b50610153600480360381019061014e9190612a70565b6104dd565b6040516101609190612ab5565b60405180910390f35b348015610174575f80fd5b5061017d61053d565b60405161018a9190612b58565b60405180910390f35b34801561019e575f80fd5b506101b960048036038101906101b49190612bab565b6105cc565b6040516101c69190612c15565b60405180910390f35b3480156101da575f80fd5b506101f560048036038101906101f09190612c58565b6105e7565b005b348015610202575f80fd5b5061020b6105fd565b6040516102189190612ca5565b60405180910390f35b34801561022c575f80fd5b5061024760048036038101906102429190612cbe565b610606565b005b348015610254575f80fd5b5061026f600480360381019061026a9190612cbe565b610705565b005b34801561027c575f80fd5b50610285610724565b6040516102929190612e5a565b60405180910390f35b3480156102a6575f80fd5b506102c160048036038101906102bc9190612bab565b6109fd565b6040516102ce9190612c15565b60405180910390f35b3480156102e2575f80fd5b506102fd60048036038101906102f89190612e7a565b610a0e565b60405161030a9190612ca5565b60405180910390f35b61032d60048036038101906103289190612fd1565b610ac4565b60405161033a9190612ca5565b60405180910390f35b61035d6004803603810190610358919061302b565b610b04565b005b34801561036a575f80fd5b50610373610cea565b6040516103809190612e5a565b60405180910390f35b348015610394575f80fd5b5061039d610f43565b6040516103aa9190612b58565b60405180910390f35b3480156103be575f80fd5b506103d960048036038101906103d49190613093565b610fd3565b005b6103f560048036038101906103f09190612bab565b610fe9565b005b348015610402575f80fd5b5061041d6004803603810190610418919061316f565b611082565b005b61043960048036038101906104349190612bab565b61109f565b005b348015610446575f80fd5b5061044f6112c0565b60405161045c9190612e5a565b60405180910390f35b348015610470575f80fd5b5061048b60048036038101906104869190612bab565b611599565b6040516104989190612b58565b60405180910390f35b3480156104ac575f80fd5b506104c760048036038101906104c291906131ef565b6116a4565b6040516104d49190612ab5565b60405180910390f35b5f634906490660e01b7bffffffffffffffffffffffffffffffffffffffffffffffffffffffff1916827bffffffffffffffffffffffffffffffffffffffffffffffffffffffff19161480610536575061053582611732565b5b9050919050565b60605f805461054b9061325a565b80601f01602080910402602001604051908101604052809291908181526020018280546105779061325a565b80156105c25780601f10610599576101008083540402835291602001916105c2565b820191905f5260205f20905b8154815290600101906020018083116105a557829003601f168201915b5050505050905090565b5f6105d682611813565b506105e082611899565b9050919050565b6105f982826105f46118d2565b6118d9565b5050565b5f600954905090565b5f73ffffffffffffffffffffffffffffffffffffffff168273ffffffffffffffffffffffffffffffffffffffff1603610676575f6040517f64a0ae9200000000000000000000000000000000000000000000000000000000815260040161066d9190612c15565b60405180910390fd5b5f61068983836106846118d2565b6118eb565b90508373ffffffffffffffffffffffffffffffffffffffff168173ffffffffffffffffffffffffffffffffffffffff16146106ff578382826040517f64283d7b0000000000000000000000000000000000000000000000000000000081526004016106f69392919061328a565b60405180910390fd5b50505050565b61071f83838360405180602001604052805f815250611082565b505050565b60605f6107316007611af6565b90505f805f5b838110156107d4573373ffffffffffffffffffffffffffffffffffffffff16600b5f60018461076691906132ec565b81526020019081526020015f206001015f9054906101000a900473ffffffffffffffffffffffffffffffffffffffff1673ffffffffffffffffffffffffffffffffffffffff16036107c1576001836107be91906132ec565b92505b80806107cc9061331f565b915050610737565b505f8267ffffffffffffffff8111156107f0576107ef612ead565b5b60405190808252806020026020018201604052801561082957816020015b6108166129b2565b81526020019060019003908161080e5790505b5090505f5b848110156109f2573373ffffffffffffffffffffffffffffffffffffffff16600b5f60018461085d91906132ec565b81526020019081526020015f206001015f9054906101000a900473ffffffffffffffffffffffffffffffffffffffff1673ffffffffffffffffffffffffffffffffffffffff16036109df575f6001826108b691906132ec565b90505f600b5f8381526020019081526020015f209050806040518060a00160405290815f8201548152602001600182015f9054906101000a900473ffffffffffffffffffffffffffffffffffffffff1673ffffffffffffffffffffffffffffffffffffffff1673ffffffffffffffffffffffffffffffffffffffff168152602001600282015f9054906101000a900473ffffffffffffffffffffffffffffffffffffffff1673ffffffffffffffffffffffffffffffffffffffff1673ffffffffffffffffffffffffffffffffffffffff16815260200160038201548152602001600482015f9054906101000a900460ff1615151515815250508486815181106109c2576109c1613366565b5b60200260200101819052506001856109da91906132ec565b945050505b80806109ea9061331f565b91505061082e565b508094505050505090565b5f610a0782611813565b9050919050565b5f8073ffffffffffffffffffffffffffffffffffffffff168273ffffffffffffffffffffffffffffffffffffffff1603610a7f575f6040517f89c62b64000000000000000000000000000000000000000000000000000000008152600401610a769190612c15565b60405180910390fd5b60035f8373ffffffffffffffffffffffffffffffffffffffff1673ffffffffffffffffffffffffffffffffffffffff1681526020019081526020015f20549050919050565b5f610acf6007611b02565b5f610ada6007611af6565b9050610ae63382611b16565b610af08185611c09565b610afa8184611c63565b8091505092915050565b3373ffffffffffffffffffffffffffffffffffffffff16600b5f8481526020019081526020015f206002015f9054906101000a900473ffffffffffffffffffffffffffffffffffffffff1673ffffffffffffffffffffffffffffffffffffffff1614610ba5576040517f08c379a0000000000000000000000000000000000000000000000000000000008152600401610b9c90613403565b60405180910390fd5b6009543414610be9576040517f08c379a0000000000000000000000000000000000000000000000000000000008152600401610be090613491565b60405180910390fd5b5f600b5f8481526020019081526020015f206004015f6101000a81548160ff02191690831515021790555080600b5f8481526020019081526020015f206003018190555033600b5f8481526020019081526020015f206001015f6101000a81548173ffffffffffffffffffffffffffffffffffffffff021916908373ffffffffffffffffffffffffffffffffffffffff16021790555030600b5f8481526020019081526020015f206002015f6101000a81548173ffffffffffffffffffffffffffffffffffffffff021916908373ffffffffffffffffffffffffffffffffffffffff160217905550610cdb6008611e5c565b610ce6333084611eb4565b5050565b60605f610cf76007611af6565b90505f610d046008611af6565b610d0e6007611af6565b610d1891906134af565b90505f808267ffffffffffffffff811115610d3657610d35612ead565b5b604051908082528060200260200182016040528015610d6f57816020015b610d5c6129b2565b815260200190600190039081610d545790505b5090505f5b84811015610f38573073ffffffffffffffffffffffffffffffffffffffff16600b5f600184610da391906132ec565b81526020019081526020015f206002015f9054906101000a900473ffffffffffffffffffffffffffffffffffffffff1673ffffffffffffffffffffffffffffffffffffffff1603610f25575f600182610dfc91906132ec565b90505f600b5f8381526020019081526020015f209050806040518060a00160405290815f8201548152602001600182015f9054906101000a900473ffffffffffffffffffffffffffffffffffffffff1673ffffffffffffffffffffffffffffffffffffffff1673ffffffffffffffffffffffffffffffffffffffff168152602001600282015f9054906101000a900473ffffffffffffffffffffffffffffffffffffffff1673ffffffffffffffffffffffffffffffffffffffff1673ffffffffffffffffffffffffffffffffffffffff16815260200160038201548152602001600482015f9054906101000a900460ff161515151581525050848681518110610f0857610f07613366565b5b6020026020010181905250600185610f2091906132ec565b945050505b8080610f309061331f565b915050610d74565b508094505050505090565b606060018054610f529061325a565b80601f0160208091040260200160405190810160405280929190818152602001828054610f7e9061325a565b8015610fc95780601f10610fa057610100808354040283529160200191610fc9565b820191905f5260205f20905b815481529060010190602001808311610fac57829003601f168201915b5050505050905090565b610fe5610fde6118d2565b838361201c565b5050565b600a5f9054906101000a900473ffffffffffffffffffffffffffffffffffffffff1673ffffffffffffffffffffffffffffffffffffffff163373ffffffffffffffffffffffffffffffffffffffff1614611078576040517f08c379a000000000000000000000000000000000000000000000000000000000815260040161106f90613552565b60405180910390fd5b8060098190555050565b61108d848484610606565b61109984848484612185565b50505050565b5f600b5f8381526020019081526020015f206003015490508034146110f9576040517f08c379a00000000000000000000000000000000000000000000000000000000081526004016110f0906135e0565b60405180910390fd5b33600b5f8481526020019081526020015f206002015f6101000a81548173ffffffffffffffffffffffffffffffffffffffff021916908373ffffffffffffffffffffffffffffffffffffffff1602179055506001600b5f8481526020019081526020015f206004015f6101000a81548160ff0219169083151502179055505f600b5f8481526020019081526020015f206002015f6101000a81548173ffffffffffffffffffffffffffffffffffffffff021916908373ffffffffffffffffffffffffffffffffffffffff1602179055506111d36008611b02565b6111de303384611eb4565b600a5f9054906101000a900473ffffffffffffffffffffffffffffffffffffffff1673ffffffffffffffffffffffffffffffffffffffff166108fc60095490811502906040515f60405180830381858888f19350505050158015611244573d5f803e3d5ffd5b50600b5f8381526020019081526020015f206001015f9054906101000a900473ffffffffffffffffffffffffffffffffffffffff1673ffffffffffffffffffffffffffffffffffffffff166108fc3490811502906040515f60405180830381858888f193505050501580156112bb573d5f803e3d5ffd5b505050565b60605f6112cd6007611af6565b90505f805f5b83811015611370573373ffffffffffffffffffffffffffffffffffffffff16600b5f60018461130291906132ec565b81526020019081526020015f206002015f9054906101000a900473ffffffffffffffffffffffffffffffffffffffff1673ffffffffffffffffffffffffffffffffffffffff160361135d5760018361135a91906132ec565b92505b80806113689061331f565b9150506112d3565b505f8267ffffffffffffffff81111561138c5761138b612ead565b5b6040519080825280602002602001820160405280156113c557816020015b6113b26129b2565b8152602001906001900390816113aa5790505b5090505f5b8481101561158e573373ffffffffffffffffffffffffffffffffffffffff16600b5f6001846113f991906132ec565b81526020019081526020015f206002015f9054906101000a900473ffffffffffffffffffffffffffffffffffffffff1673ffffffffffffffffffffffffffffffffffffffff160361157b575f60018261145291906132ec565b90505f600b5f8381526020019081526020015f209050806040518060a00160405290815f8201548152602001600182015f9054906101000a900473ffffffffffffffffffffffffffffffffffffffff1673ffffffffffffffffffffffffffffffffffffffff1673ffffffffffffffffffffffffffffffffffffffff168152602001600282015f9054906101000a900473ffffffffffffffffffffffffffffffffffffffff1673ffffffffffffffffffffffffffffffffffffffff1673ffffffffffffffffffffffffffffffffffffffff16815260200160038201548152602001600482015f9054906101000a900460ff16151515158152505084868151811061155e5761155d613366565b5b602002602001018190525060018561157691906132ec565b945050505b80806115869061331f565b9150506113ca565b508094505050505090565b60606115a482611813565b505f60065f8481526020019081526020015f2080546115c29061325a565b80601f01602080910402602001604051908101604052809291908181526020018280546115ee9061325a565b80156116395780601f1061161057610100808354040283529160200191611639565b820191905f5260205f20905b81548152906001019060200180831161161c57829003601f168201915b505050505090505f611649612337565b90505f81510361165d57819250505061169f565b5f82511115611691578082604051602001611679929190613638565b6040516020818303038152906040529250505061169f565b61169a8461234d565b925050505b919050565b5f60055f8473ffffffffffffffffffffffffffffffffffffffff1673ffffffffffffffffffffffffffffffffffffffff1681526020019081526020015f205f8373ffffffffffffffffffffffffffffffffffffffff1673ffffffffffffffffffffffffffffffffffffffff1681526020019081526020015f205f9054906101000a900460ff16905092915050565b5f7f80ac58cd000000000000000000000000000000000000000000000000000000007bffffffffffffffffffffffffffffffffffffffffffffffffffffffff1916827bffffffffffffffffffffffffffffffffffffffffffffffffffffffff191614806117fc57507f5b5e139f000000000000000000000000000000000000000000000000000000007bffffffffffffffffffffffffffffffffffffffffffffffffffffffff1916827bffffffffffffffffffffffffffffffffffffffffffffffffffffffff1916145b8061180c575061180b826123b3565b5b9050919050565b5f8061181e8361241c565b90505f73ffffffffffffffffffffffffffffffffffffffff168173ffffffffffffffffffffffffffffffffffffffff160361189057826040517f7e2732890000000000000000000000000000000000000000000000000000000081526004016118879190612ca5565b60405180910390fd5b80915050919050565b5f60045f8381526020019081526020015f205f9054906101000a900473ffffffffffffffffffffffffffffffffffffffff169050919050565b5f33905090565b6118e68383836001612455565b505050565b5f806118f68461241c565b90505f73ffffffffffffffffffffffffffffffffffffffff168373ffffffffffffffffffffffffffffffffffffffff161461193757611936818486612614565b5b5f73ffffffffffffffffffffffffffffffffffffffff168173ffffffffffffffffffffffffffffffffffffffff16146119c2576119765f855f80612455565b600160035f8373ffffffffffffffffffffffffffffffffffffffff1673ffffffffffffffffffffffffffffffffffffffff1681526020019081526020015f205f82825403925050819055505b5f73ffffffffffffffffffffffffffffffffffffffff168573ffffffffffffffffffffffffffffffffffffffff1614611a4157600160035f8773ffffffffffffffffffffffffffffffffffffffff1673ffffffffffffffffffffffffffffffffffffffff1681526020019081526020015f205f82825401925050819055505b8460025f8681526020019081526020015f205f6101000a81548173ffffffffffffffffffffffffffffffffffffffff021916908373ffffffffffffffffffffffffffffffffffffffff160217905550838573ffffffffffffffffffffffffffffffffffffffff168273ffffffffffffffffffffffffffffffffffffffff167fddf252ad1be2c89b69c2b068fc378daa952ba7f163c4a11628f55a4df523b3ef60405160405180910390a4809150509392505050565b5f815f01549050919050565b6001815f015f828254019250508190555050565b5f73ffffffffffffffffffffffffffffffffffffffff168273ffffffffffffffffffffffffffffffffffffffff1603611b86575f6040517f64a0ae92000000000000000000000000000000000000000000000000000000008152600401611b7d9190612c15565b60405180910390fd5b5f611b9283835f6118eb565b90505f73ffffffffffffffffffffffffffffffffffffffff168173ffffffffffffffffffffffffffffffffffffffff1614611c04575f6040517f73c6ac6e000000000000000000000000000000000000000000000000000000008152600401611bfb9190612c15565b60405180910390fd5b505050565b8060065f8481526020019081526020015f209081611c2791906137f8565b507ff8e1a15aba9398e019f0b49df1a4fde98ee17ae345cb5f6b5e2c27f5033e8ce782604051611c579190612ca5565b60405180910390a15050565b5f8111611ca5576040517f08c379a0000000000000000000000000000000000000000000000000000000008152600401611c9c90613911565b60405180910390fd5b6009543414611ce9576040517f08c379a0000000000000000000000000000000000000000000000000000000008152600401611ce090613491565b60405180910390fd5b6040518060a001604052808381526020013373ffffffffffffffffffffffffffffffffffffffff1681526020013073ffffffffffffffffffffffffffffffffffffffff1681526020018281526020015f1515815250600b5f8481526020019081526020015f205f820151815f01556020820151816001015f6101000a81548173ffffffffffffffffffffffffffffffffffffffff021916908373ffffffffffffffffffffffffffffffffffffffff1602179055506040820151816002015f6101000a81548173ffffffffffffffffffffffffffffffffffffffff021916908373ffffffffffffffffffffffffffffffffffffffff160217905550606082015181600301556080820151816004015f6101000a81548160ff021916908315150217905550905050611e1a333084611eb4565b817fdebdb32cb5230ab727c9c361b16fdb2015df225c10e6a3e7f60ecd5dc5be45163330845f604051611e50949392919061392f565b60405180910390a25050565b5f815f015490505f8111611ea5576040517f08c379a0000000000000000000000000000000000000000000000000000000008152600401611e9c906139bc565b60405180910390fd5b60018103825f01819055505050565b5f73ffffffffffffffffffffffffffffffffffffffff168273ffffffffffffffffffffffffffffffffffffffff1603611f24575f6040517f64a0ae92000000000000000000000000000000000000000000000000000000008152600401611f1b9190612c15565b60405180910390fd5b5f611f3083835f6118eb565b90505f73ffffffffffffffffffffffffffffffffffffffff168173ffffffffffffffffffffffffffffffffffffffff1603611fa257816040517f7e273289000000000000000000000000000000000000000000000000000000008152600401611f999190612ca5565b60405180910390fd5b8373ffffffffffffffffffffffffffffffffffffffff168173ffffffffffffffffffffffffffffffffffffffff1614612016578382826040517f64283d7b00000000000000000000000000000000000000000000000000000000815260040161200d9392919061328a565b60405180910390fd5b50505050565b5f73ffffffffffffffffffffffffffffffffffffffff168273ffffffffffffffffffffffffffffffffffffffff160361208c57816040517f5b08ba180000000000000000000000000000000000000000000000000000000081526004016120839190612c15565b60405180910390fd5b8060055f8573ffffffffffffffffffffffffffffffffffffffff1673ffffffffffffffffffffffffffffffffffffffff1681526020019081526020015f205f8473ffffffffffffffffffffffffffffffffffffffff1673ffffffffffffffffffffffffffffffffffffffff1681526020019081526020015f205f6101000a81548160ff0219169083151502179055508173ffffffffffffffffffffffffffffffffffffffff168373ffffffffffffffffffffffffffffffffffffffff167f17307eab39ab6107e8899845ad3d59bd9653f200f220920489ca2b5937696c31836040516121789190612ab5565b60405180910390a3505050565b5f8373ffffffffffffffffffffffffffffffffffffffff163b1115612331578273ffffffffffffffffffffffffffffffffffffffff1663150b7a026121c86118d2565b8685856040518563ffffffff1660e01b81526004016121ea9493929190613a2c565b6020604051808303815f875af192505050801561222557506040513d601f19601f820116820180604052508101906122229190613a8a565b60015b6122a6573d805f8114612253576040519150601f19603f3d011682016040523d82523d5f602084013e612258565b606091505b505f81510361229e57836040517f64a0ae920000000000000000000000000000000000000000000000000000000081526004016122959190612c15565b60405180910390fd5b805181602001fd5b63150b7a0260e01b7bffffffffffffffffffffffffffffffffffffffffffffffffffffffff1916817bffffffffffffffffffffffffffffffffffffffffffffffffffffffff19161461232f57836040517f64a0ae920000000000000000000000000000000000000000000000000000000081526004016123269190612c15565b60405180910390fd5b505b50505050565b606060405180602001604052805f815250905090565b606061235882611813565b505f612362612337565b90505f8151116123805760405180602001604052805f8152506123ab565b8061238a846126d7565b60405160200161239b929190613638565b6040516020818303038152906040525b915050919050565b5f7f01ffc9a7000000000000000000000000000000000000000000000000000000007bffffffffffffffffffffffffffffffffffffffffffffffffffffffff1916827bffffffffffffffffffffffffffffffffffffffffffffffffffffffff1916149050919050565b5f60025f8381526020019081526020015f205f9054906101000a900473ffffffffffffffffffffffffffffffffffffffff169050919050565b808061248d57505f73ffffffffffffffffffffffffffffffffffffffff168273ffffffffffffffffffffffffffffffffffffffff1614155b156125bf575f61249c84611813565b90505f73ffffffffffffffffffffffffffffffffffffffff168373ffffffffffffffffffffffffffffffffffffffff161415801561250657508273ffffffffffffffffffffffffffffffffffffffff168173ffffffffffffffffffffffffffffffffffffffff1614155b8015612519575061251781846116a4565b155b1561255b57826040517fa9fbf51f0000000000000000000000000000000000000000000000000000000081526004016125529190612c15565b60405180910390fd5b81156125bd57838573ffffffffffffffffffffffffffffffffffffffff168273ffffffffffffffffffffffffffffffffffffffff167f8c5be1e5ebec7d5bd14f71427d1e84f3dd0314c0f7b2291e5b200ac8c7c3b92560405160405180910390a45b505b8360045f8581526020019081526020015f205f6101000a81548173ffffffffffffffffffffffffffffffffffffffff021916908373ffffffffffffffffffffffffffffffffffffffff16021790555050505050565b61261f8383836127a1565b6126d2575f73ffffffffffffffffffffffffffffffffffffffff168373ffffffffffffffffffffffffffffffffffffffff160361269357806040517f7e27328900000000000000000000000000000000000000000000000000000000815260040161268a9190612ca5565b60405180910390fd5b81816040517f177e802f0000000000000000000000000000000000000000000000000000000081526004016126c9929190613ab5565b60405180910390fd5b505050565b60605f60016126e584612861565b0190505f8167ffffffffffffffff81111561270357612702612ead565b5b6040519080825280601f01601f1916602001820160405280156127355781602001600182028036833780820191505090505b5090505f82602001820190505b600115612796578080600190039150507f3031323334353637383961626364656600000000000000000000000000000000600a86061a8153600a858161278b5761278a613adc565b5b0494505f8503612742575b819350505050919050565b5f8073ffffffffffffffffffffffffffffffffffffffff168373ffffffffffffffffffffffffffffffffffffffff161415801561285857508273ffffffffffffffffffffffffffffffffffffffff168473ffffffffffffffffffffffffffffffffffffffff161480612819575061281884846116a4565b5b8061285757508273ffffffffffffffffffffffffffffffffffffffff1661283f83611899565b73ffffffffffffffffffffffffffffffffffffffff16145b5b90509392505050565b5f805f90507a184f03e93ff9f4daa797ed6e38ed64bf6a1f01000000000000000083106128bd577a184f03e93ff9f4daa797ed6e38ed64bf6a1f01000000000000000083816128b3576128b2613adc565b5b0492506040810190505b6d04ee2d6d415b85acef810000000083106128fa576d04ee2d6d415b85acef810000000083816128f0576128ef613adc565b5b0492506020810190505b662386f26fc10000831061292957662386f26fc10000838161291f5761291e613adc565b5b0492506010810190505b6305f5e1008310612952576305f5e100838161294857612947613adc565b5b0492506008810190505b612710831061297757612710838161296d5761296c613adc565b5b0492506004810190505b6064831061299a57606483816129905761298f613adc565b5b0492506002810190505b600a83106129a9576001810190505b80915050919050565b6040518060a001604052805f81526020015f73ffffffffffffffffffffffffffffffffffffffff1681526020015f73ffffffffffffffffffffffffffffffffffffffff1681526020015f81526020015f151581525090565b5f604051905090565b5f80fd5b5f80fd5b5f7fffffffff0000000000000000000000000000000000000000000000000000000082169050919050565b612a4f81612a1b565b8114612a59575f80fd5b50565b5f81359050612a6a81612a46565b92915050565b5f60208284031215612a8557612a84612a13565b5b5f612a9284828501612a5c565b91505092915050565b5f8115159050919050565b612aaf81612a9b565b82525050565b5f602082019050612ac85f830184612aa6565b92915050565b5f81519050919050565b5f82825260208201905092915050565b5f5b83811015612b05578082015181840152602081019050612aea565b5f8484015250505050565b5f601f19601f8301169050919050565b5f612b2a82612ace565b612b348185612ad8565b9350612b44818560208601612ae8565b612b4d81612b10565b840191505092915050565b5f6020820190508181035f830152612b708184612b20565b905092915050565b5f819050919050565b612b8a81612b78565b8114612b94575f80fd5b50565b5f81359050612ba581612b81565b92915050565b5f60208284031215612bc057612bbf612a13565b5b5f612bcd84828501612b97565b91505092915050565b5f73ffffffffffffffffffffffffffffffffffffffff82169050919050565b5f612bff82612bd6565b9050919050565b612c0f81612bf5565b82525050565b5f602082019050612c285f830184612c06565b92915050565b612c3781612bf5565b8114612c41575f80fd5b50565b5f81359050612c5281612c2e565b92915050565b5f8060408385031215612c6e57612c6d612a13565b5b5f612c7b85828601612c44565b9250506020612c8c85828601612b97565b9150509250929050565b612c9f81612b78565b82525050565b5f602082019050612cb85f830184612c96565b92915050565b5f805f60608486031215612cd557612cd4612a13565b5b5f612ce286828701612c44565b9350506020612cf386828701612c44565b9250506040612d0486828701612b97565b9150509250925092565b5f81519050919050565b5f82825260208201905092915050565b5f819050602082019050919050565b612d4081612b78565b82525050565b5f612d5082612bd6565b9050919050565b612d6081612d46565b82525050565b612d6f81612a9b565b82525050565b60a082015f820151612d895f850182612d37565b506020820151612d9c6020850182612d57565b506040820151612daf6040850182612d57565b506060820151612dc26060850182612d37565b506080820151612dd56080850182612d66565b50505050565b5f612de68383612d75565b60a08301905092915050565b5f602082019050919050565b5f612e0882612d0e565b612e128185612d18565b9350612e1d83612d28565b805f5b83811015612e4d578151612e348882612ddb565b9750612e3f83612df2565b925050600181019050612e20565b5085935050505092915050565b5f6020820190508181035f830152612e728184612dfe565b905092915050565b5f60208284031215612e8f57612e8e612a13565b5b5f612e9c84828501612c44565b91505092915050565b5f80fd5b5f80fd5b7f4e487b71000000000000000000000000000000000000000000000000000000005f52604160045260245ffd5b612ee382612b10565b810181811067ffffffffffffffff82111715612f0257612f01612ead565b5b80604052505050565b5f612f14612a0a565b9050612f208282612eda565b919050565b5f67ffffffffffffffff821115612f3f57612f3e612ead565b5b612f4882612b10565b9050602081019050919050565b828183375f83830152505050565b5f612f75612f7084612f25565b612f0b565b905082815260208101848484011115612f9157612f90612ea9565b5b612f9c848285612f55565b509392505050565b5f82601f830112612fb857612fb7612ea5565b5b8135612fc8848260208601612f63565b91505092915050565b5f8060408385031215612fe757612fe6612a13565b5b5f83013567ffffffffffffffff81111561300457613003612a17565b5b61301085828601612fa4565b925050602061302185828601612b97565b9150509250929050565b5f806040838503121561304157613040612a13565b5b5f61304e85828601612b97565b925050602061305f85828601612b97565b9150509250929050565b61307281612a9b565b811461307c575f80fd5b50565b5f8135905061308d81613069565b92915050565b5f80604083850312156130a9576130a8612a13565b5b5f6130b685828601612c44565b92505060206130c78582860161307f565b9150509250929050565b5f67ffffffffffffffff8211156130eb576130ea612ead565b5b6130f482612b10565b9050602081019050919050565b5f61311361310e846130d1565b612f0b565b90508281526020810184848401111561312f5761312e612ea9565b5b61313a848285612f55565b509392505050565b5f82601f83011261315657613155612ea5565b5b8135613166848260208601613101565b91505092915050565b5f805f806080858703121561318757613186612a13565b5b5f61319487828801612c44565b94505060206131a587828801612c44565b93505060406131b687828801612b97565b925050606085013567ffffffffffffffff8111156131d7576131d6612a17565b5b6131e387828801613142565b91505092959194509250565b5f806040838503121561320557613204612a13565b5b5f61321285828601612c44565b925050602061322385828601612c44565b9150509250929050565b7f4e487b71000000000000000000000000000000000000000000000000000000005f52602260045260245ffd5b5f600282049050600182168061327157607f821691505b6020821081036132845761328361322d565b5b50919050565b5f60608201905061329d5f830186612c06565b6132aa6020830185612c96565b6132b76040830184612c06565b949350505050565b7f4e487b71000000000000000000000000000000000000000000000000000000005f52601160045260245ffd5b5f6132f682612b78565b915061330183612b78565b9250828201905080821115613319576133186132bf565b5b92915050565b5f61332982612b78565b91507fffffffffffffffffffffffffffffffffffffffffffffffffffffffffffffffff820361335b5761335a6132bf565b5b600182019050919050565b7f4e487b71000000000000000000000000000000000000000000000000000000005f52603260045260245ffd5b7f6f6e6c79206974656d206f776e65722063616e20706572666f726d20746869735f8201527f20616374696f6e00000000000000000000000000000000000000000000000000602082015250565b5f6133ed602783612ad8565b91506133f882613393565b604082019050919050565b5f6020820190508181035f83015261341a816133e1565b9050919050565b7f7072696365206d75737420626520657175616c20746f206c697374696e6720705f8201527f7269636500000000000000000000000000000000000000000000000000000000602082015250565b5f61347b602483612ad8565b915061348682613421565b604082019050919050565b5f6020820190508181035f8301526134a88161346f565b9050919050565b5f6134b982612b78565b91506134c483612b78565b92508282039050818111156134dc576134db6132bf565b5b92915050565b7f6f6e6c79206f776e6572206f6620746865206d61726b6574706c6163652063615f8201527f6e206368616e676520746865206c697374696e67207072696365000000000000602082015250565b5f61353c603a83612ad8565b9150613547826134e2565b604082019050919050565b5f6020820190508181035f83015261356981613530565b9050919050565b7f706c65617365207375626d6974207468652061736b696e6720707269636520745f8201527f6f20636f6d706c65746520746865207075726368617365000000000000000000602082015250565b5f6135ca603783612ad8565b91506135d582613570565b604082019050919050565b5f6020820190508181035f8301526135f7816135be565b9050919050565b5f81905092915050565b5f61361282612ace565b61361c81856135fe565b935061362c818560208601612ae8565b80840191505092915050565b5f6136438285613608565b915061364f8284613608565b91508190509392505050565b5f819050815f5260205f209050919050565b5f6020601f8301049050919050565b5f82821b905092915050565b5f600883026136b77fffffffffffffffffffffffffffffffffffffffffffffffffffffffffffffffff8261367c565b6136c1868361367c565b95508019841693508086168417925050509392505050565b5f819050919050565b5f6136fc6136f76136f284612b78565b6136d9565b612b78565b9050919050565b5f819050919050565b613715836136e2565b61372961372182613703565b848454613688565b825550505050565b5f90565b61373d613731565b61374881848461370c565b505050565b5b8181101561376b576137605f82613735565b60018101905061374e565b5050565b601f8211156137b0576137818161365b565b61378a8461366d565b81016020851015613799578190505b6137ad6137a58561366d565b83018261374d565b50505b505050565b5f82821c905092915050565b5f6137d05f19846008026137b5565b1980831691505092915050565b5f6137e883836137c1565b9150826002028217905092915050565b61380182612ace565b67ffffffffffffffff81111561381a57613819612ead565b5b613824825461325a565b61382f82828561376f565b5f60209050601f831160018114613860575f841561384e578287015190505b61385885826137dd565b8655506138bf565b601f19841661386e8661365b565b5f5b8281101561389557848901518255600182019150602085019450602081019050613870565b868310156138b257848901516138ae601f8916826137c1565b8355505b6001600288020188555050505b505050505050565b7f7072696365206d757374206265206174206c65617374203100000000000000005f82015250565b5f6138fb601883612ad8565b9150613906826138c7565b602082019050919050565b5f6020820190508181035f830152613928816138ef565b9050919050565b5f6080820190506139425f830187612c06565b61394f6020830186612c06565b61395c6040830185612c96565b6139696060830184612aa6565b95945050505050565b7f436f756e7465723a2064656372656d656e74206f766572666c6f7700000000005f82015250565b5f6139a6601b83612ad8565b91506139b182613972565b602082019050919050565b5f6020820190508181035f8301526139d38161399a565b9050919050565b5f81519050919050565b5f82825260208201905092915050565b5f6139fe826139da565b613a0881856139e4565b9350613a18818560208601612ae8565b613a2181612b10565b840191505092915050565b5f608082019050613a3f5f830187612c06565b613a4c6020830186612c06565b613a596040830185612c96565b8181036060830152613a6b81846139f4565b905095945050505050565b5f81519050613a8481612a46565b92915050565b5f60208284031215613a9f57613a9e612a13565b5b5f613aac84828501613a76565b91505092915050565b5f604082019050613ac85f830185612c06565b613ad56020830184612c96565b9392505050565b7f4e487b71000000000000000000000000000000000000000000000000000000005f52601260045260245ffdfea2646970667358221220dd08543c6e17b3966db222ca1da82fdab8d5d38001cc9cbaf6b47e244ffac2a764736f6c63430008150033",
  "immutableReferences": {},
  "source": "// SPDX-License-Identifier: UNLICENSED\r\npragma solidity ^0.8.19;\r\n\r\nimport \"@openzeppelin/contracts/utils/Counters.sol\";\r\nimport \"@openzeppelin/contracts/token/ERC721/ERC721.sol\";\r\nimport \"@openzeppelin/contracts/token/ERC721/extensions/ERC721URIStorage.sol\";\r\n\r\ncontract NFTmarketplace is ERC721URIStorage {\r\n    using Counters for Counters.Counter;\r\n\r\n    Counters.Counter private _tokenIds;\r\n    Counters.Counter private _itemsSold;\r\n    uint256 listingPrice = 0.0025 ether;\r\n\r\n    address payable owner;\r\n    mapping(uint256 => MarketItem) private idMarketItem;\r\n\r\n    struct MarketItem {\r\n        uint256 tokenId;\r\n        address payable seller;\r\n        address payable owner;\r\n        uint256 price;\r\n        bool sold;\r\n    }\r\n\r\n    event idMarketItemCreated(\r\n        uint256 indexed tokenId,\r\n        address seller,\r\n        address owner,\r\n        uint256 price,\r\n        bool sold\r\n    );\r\n\r\n    modifier onlyOwner {\r\n        require(msg.sender == owner, \"only owner of the marketplace can change the listing price\");\r\n        _;\r\n    }\r\n\r\n    constructor() ERC721(\"NFT Meatverse Token\", \"MYNFT\") {\r\n        owner = payable(msg.sender);\r\n    }\r\n\r\n    function updateListingPrice(uint256 _listingPrice) public payable onlyOwner {\r\n        listingPrice = _listingPrice;\r\n    }\r\n\r\n    function getListingPrice() public view returns (uint256) {\r\n        return listingPrice;\r\n    }\r\n\r\n    function createToken(string memory tokenURI, uint256 price) public payable returns (uint256) {\r\n        _tokenIds.increment();\r\n        uint256 newTokenId = _tokenIds.current();\r\n\r\n        _mint(msg.sender, newTokenId);\r\n        _setTokenURI(newTokenId, tokenURI);\r\n\r\n        createMarketItem(newTokenId, price);\r\n\r\n        return newTokenId;\r\n    }\r\n\r\n    function createMarketItem(uint256 tokenId, uint256 price) private {\r\n        require(price > 0, \"price must be at least 1\");\r\n        require(msg.value == listingPrice, \"price must be equal to listing price\");\r\n\r\n        idMarketItem[tokenId] = MarketItem(\r\n            tokenId,\r\n            payable(msg.sender),\r\n            payable(address(this)),\r\n            price,\r\n            false\r\n        );\r\n\r\n        _transfer(msg.sender, address(this), tokenId);\r\n\r\n        emit idMarketItemCreated(tokenId, msg.sender, address(this), price, false);\r\n    }\r\n\r\n    function reSellToken(uint256 tokenId, uint256 price) public payable {\r\n        require(idMarketItem[tokenId].owner == msg.sender, \"only item owner can perform this action\");\r\n        require(msg.value == listingPrice, \"price must be equal to listing price\");\r\n\r\n        idMarketItem[tokenId].sold = false;\r\n        idMarketItem[tokenId].price = price;\r\n        idMarketItem[tokenId].seller = payable(msg.sender);\r\n        idMarketItem[tokenId].owner = payable(address(this));\r\n\r\n        _itemsSold.decrement();\r\n\r\n        _transfer(msg.sender, address(this), tokenId);\r\n    }\r\n\r\n    function createMarketSale(uint256 tokenId) public payable {\r\n        uint256 price = idMarketItem[tokenId].price;\r\n        require(msg.value == price, \"please submit the asking price to complete the purchase\");\r\n\r\n        idMarketItem[tokenId].owner = payable(msg.sender);\r\n        idMarketItem[tokenId].sold = true;\r\n        idMarketItem[tokenId].owner = payable(address(0));\r\n\r\n        _itemsSold.increment();\r\n\r\n        _transfer(address(this), msg.sender, tokenId);\r\n\r\n        payable(owner).transfer(listingPrice);\r\n        payable(idMarketItem[tokenId].seller).transfer(msg.value);\r\n    }\r\n\r\n    function fetchMarketItem() public view returns (MarketItem[] memory) {\r\n        uint256 itemCount = _tokenIds.current();\r\n        uint256 unsoldItemCount = _tokenIds.current() - _itemsSold.current();\r\n        uint256 currentIndex = 0;\r\n\r\n        MarketItem[] memory items = new MarketItem[](unsoldItemCount);\r\n        for (uint256 i = 0; i < itemCount; i++) {\r\n            if (idMarketItem[i + 1].owner == address(this)) {\r\n                uint256 currentId = i + 1;\r\n\r\n                MarketItem storage currentItem = idMarketItem[currentId];\r\n                items[currentIndex] = currentItem;\r\n                currentIndex += 1;\r\n            }\r\n        }\r\n\r\n        return items;\r\n    }\r\n\r\n    function fetchMyNFT() public view returns (MarketItem[] memory) {\r\n        uint256 totalItemCount = _tokenIds.current();\r\n        uint256 itemCount = 0;\r\n        uint256 currentIndex = 0;\r\n\r\n        for (uint256 i = 0; i < totalItemCount; i++) {\r\n            if (idMarketItem[i + 1].owner == msg.sender) {\r\n                itemCount += 1;\r\n            }\r\n        }\r\n\r\n        MarketItem[] memory items = new MarketItem[](itemCount);\r\n        for (uint256 i = 0; i < totalItemCount; i++) {\r\n            if (idMarketItem[i + 1].owner == msg.sender) {\r\n                uint256 currentId = i + 1;\r\n\r\n                MarketItem storage currentItem = idMarketItem[currentId];\r\n                items[currentIndex] = currentItem;\r\n                currentIndex += 1;\r\n            }\r\n        }\r\n\r\n        return items;\r\n    }\r\n\r\n    function fetchItemsListed() public view returns (MarketItem[] memory) {\r\n        uint256 totalItemCount = _tokenIds.current();\r\n        uint256 itemCount = 0;\r\n        uint256 currentIndex = 0;\r\n\r\n        for (uint256 i = 0; i < totalItemCount; i++) {\r\n            if (idMarketItem[i + 1].seller == msg.sender) {\r\n                itemCount += 1;\r\n            }\r\n        }\r\n\r\n        MarketItem[] memory items = new MarketItem[](itemCount);\r\n        for (uint256 i = 0; i < totalItemCount; i++) {\r\n            if (idMarketItem[i + 1].seller == msg.sender) {\r\n                uint256 currentId = i + 1;\r\n\r\n                MarketItem storage currentItem = idMarketItem[currentId];\r\n                items[currentIndex] = currentItem;\r\n                currentIndex += 1;\r\n            }\r\n        }\r\n\r\n        return items;\r\n    }\r\n}",
  "sourcePath": "D:\\Block_CHain_Project\\nft-platform\\contracts\\nft.sol",
  "compiler": {
    "name": "solc",
    "version": "0.8.21+commit.d9974bed.Emscripten.clang"
  },
  "schemaVersion": "3.4.16",
  "updatedAt": "2024-06-07T20:59:16.599Z",
  "devdoc": {
    "errors": {
      "ERC721IncorrectOwner(address,uint256,address)": [
        {
          "details": "Indicates an error related to the ownership over a particular token. Used in transfers.",
          "params": {
            "owner": "Address of the current owner of a token.",
            "sender": "Address whose tokens are being transferred.",
            "tokenId": "Identifier number of a token."
          }
        }
      ],
      "ERC721InsufficientApproval(address,uint256)": [
        {
          "details": "Indicates a failure with the `operator`s approval. Used in transfers.",
          "params": {
            "operator": "Address that may be allowed to operate on tokens without being their owner.",
            "tokenId": "Identifier number of a token."
          }
        }
      ],
      "ERC721InvalidApprover(address)": [
        {
          "details": "Indicates a failure with the `approver` of a token to be approved. Used in approvals.",
          "params": {
            "approver": "Address initiating an approval operation."
          }
        }
      ],
      "ERC721InvalidOperator(address)": [
        {
          "details": "Indicates a failure with the `operator` to be approved. Used in approvals.",
          "params": {
            "operator": "Address that may be allowed to operate on tokens without being their owner."
          }
        }
      ],
      "ERC721InvalidOwner(address)": [
        {
          "details": "Indicates that an address can't be an owner. For example, `address(0)` is a forbidden owner in EIP-20. Used in balance queries.",
          "params": {
            "owner": "Address of the current owner of a token."
          }
        }
      ],
      "ERC721InvalidReceiver(address)": [
        {
          "details": "Indicates a failure with the token `receiver`. Used in transfers.",
          "params": {
            "receiver": "Address to which tokens are being transferred."
          }
        }
      ],
      "ERC721InvalidSender(address)": [
        {
          "details": "Indicates a failure with the token `sender`. Used in transfers.",
          "params": {
            "sender": "Address whose tokens are being transferred."
          }
        }
      ],
      "ERC721NonexistentToken(uint256)": [
        {
          "details": "Indicates a `tokenId` whose `owner` is the zero address.",
          "params": {
            "tokenId": "Identifier number of a token."
          }
        }
      ]
    },
    "events": {
      "Approval(address,address,uint256)": {
        "details": "Emitted when `owner` enables `approved` to manage the `tokenId` token."
      },
      "ApprovalForAll(address,address,bool)": {
        "details": "Emitted when `owner` enables or disables (`approved`) `operator` to manage all of its assets."
      },
      "BatchMetadataUpdate(uint256,uint256)": {
        "details": "This event emits when the metadata of a range of tokens is changed. So that the third-party platforms such as NFT market could timely update the images and related attributes of the NFTs."
      },
      "MetadataUpdate(uint256)": {
        "details": "This event emits when the metadata of a token is changed. So that the third-party platforms such as NFT market could timely update the images and related attributes of the NFT."
      },
      "Transfer(address,address,uint256)": {
        "details": "Emitted when `tokenId` token is transferred from `from` to `to`."
      }
    },
    "kind": "dev",
    "methods": {
      "approve(address,uint256)": {
        "details": "See {IERC721-approve}."
      },
      "balanceOf(address)": {
        "details": "See {IERC721-balanceOf}."
      },
      "getApproved(uint256)": {
        "details": "See {IERC721-getApproved}."
      },
      "isApprovedForAll(address,address)": {
        "details": "See {IERC721-isApprovedForAll}."
      },
      "name()": {
        "details": "See {IERC721Metadata-name}."
      },
      "ownerOf(uint256)": {
        "details": "See {IERC721-ownerOf}."
      },
      "safeTransferFrom(address,address,uint256)": {
        "details": "See {IERC721-safeTransferFrom}."
      },
      "safeTransferFrom(address,address,uint256,bytes)": {
        "details": "See {IERC721-safeTransferFrom}."
      },
      "setApprovalForAll(address,bool)": {
        "details": "See {IERC721-setApprovalForAll}."
      },
      "supportsInterface(bytes4)": {
        "details": "See {IERC165-supportsInterface}"
      },
      "symbol()": {
        "details": "See {IERC721Metadata-symbol}."
      },
      "tokenURI(uint256)": {
        "details": "See {IERC721Metadata-tokenURI}."
      },
      "transferFrom(address,address,uint256)": {
        "details": "See {IERC721-transferFrom}."
      }
    },
    "version": 1
  },
  "userdoc": {
    "kind": "user",
    "methods": {},
    "version": 1
  }
}